:020000040800F2
:10000000780700208901000887210008211E0008C8
:1000100085210008F5030008F52500080000000010
:10002000000000000000000000000000192500088A
:100030000D06000800000000752200087D2500085C
:10004000A3010008A3010008A3010008A301000800
:10005000A3010008A3010008A3010008A3010008F0
:10006000A3010008A3010008A3010008A3010008E0
:10007000A3010008A3010008A3010008A3010008D0
:10008000A3010008A3010008A3010008A3010008C0
:10009000A3010008A3010008A3010008A3010008B0
:1000A000A3010008A3010008A3010008A3010008A0
:1000B000A3010008A3010008A3010008A301000890
:1000C000A3010008A3010008A3010008A301000880
:1000D000A3010008A3010008A3010008A301000870
:1000E000A3010008A3010008A301000800F002F822
:1000F00000F03AF80AA090E8000C82448344AAF188
:100100000107DA4501D100F02FF8AFF2090EBAE885
:100110000F0013F0010F18BFFB1A43F0010318473B
:10012000E827000008280000103A24BF78C878C1EA
:10013000FAD8520724BF30C830C144BF04680C60ED
:10014000704700000023002400250026103A28BF35
:1001500078C1FBD8520728BF30C148BF0B60704739
:100160001FB51FBD10B510BD00F07CF81146FFF79C
:10017000F7FF02F051FA00F09AF803B4FFF7F2FF2C
:1001800003BC00F0A1F80000094880470948004777
:10019000FEE7FEE7FEE7FEE7FEE7FEE7FEE7FEE737
:1001A000FEE7FEE704480549054A064B7047000094
:1001B000F3250008ED0000087801002078070020F2
:1001C000780300207803002040EA0103024630B59E
:1001D0009B0710D14FF0013400E008C208C91D1B75
:1001E0009D4315EAC41FF8D013F0FF0102F8011B6C
:1001F0000DD01B0AF8E711F8013B002B02F8013B78
:1002000005D011F8013B002B02F8013BF3D130BDC2
:100210004FF0000200B5134694469646203922BF9F
:10022000A0E80C50A0E80C50B1F12001BFF4F7AFEA
:10023000090728BFA0E80C5048BF0CC05DF804EBCC
:10024000890028BF40F8042B08BF704748BF20F83A
:10025000022B11F0804F18BF00F8012B7047704738
:1002600070477047754600F02BF8AE4605006946AA
:10027000534620F00700854618B020B5FFF792FFDF
:10028000BDE820404FF000064FF000074FF0000897
:100290004FF0000B21F00701AC46ACE8C009ACE818
:1002A000C009ACE8C009ACE8C0098D46704710B57C
:1002B0000446AFF300802046BDE81040FFF75DBF65
:1002C000004870471401002001491820ABBEFEE72A
:1002D000260002007047000070B50446006881687F
:1002E000C943C90717D1816821F00101816000F07D
:1002F000F7FC05460AE000BF00F0F2FC401B0228B4
:1003000004D920688068C043C00706D02068806890
:10031000C043C007F0D0002070BDA06A40F01000BC
:10032000A062E06A40F00100E062012070BD0000C0
:10033000F8B500260446009600688168C943C907DD
:100340002DD0816841F0010181601648164900688E
:10035000B0FBF1F000E0401E00900028FBD100F05F
:10036000BFFC054616E000BF00F0BAFC401B0228A7
:1003700010D920688068C043C0070BD0A06A40F045
:100380001000A062E06A40F00100E06284F824609E
:100390000120F8BD20688068C043C007E4D1002078
:1003A000F8BD00002800002040420F000EB50020DC
:1003B000009001200190042002906946034800F05B
:1003C00027F9002801D072B6FEE70EBD2C000020F0
:1003D0000EB500200290012000900190694604486B
:1003E00000F016F9002801D072B6FEE70EBD00003D
:1003F0002C000020FEE7000000220821014800F048
:100400006ABC00000008014001220821014800F0F8
:1004100062BC00000008014010B50022012100F07C
:1004200087F8BDE81040052000F046BB10B5044633
:100430000298216022716371A0712820A0720620A9
:10044000E0710C202072142060720820E0723220CB
:1004500000F032FB00223321204600F069F8002230
:100460003321204600F064F8052000F025FB00222F
:100470003221204600F05CF8052000F01DFB002230
:100480002021204600F054F8052000F015FBE1790A
:100490000022204600F04CF8217A0022204600F08D
:1004A00047F8617A0022204600F042F8A17A002243
:1004B000204600F03DF800220121204600F038F8E7
:1004C00020460022BDE81040022100F031B830B4CF
:1004D000447900238C4201D8641EE1B284799442AD
:1004E00001D8641EE2B232B1012A06D0022A06D037
:1004F000032A06D007E00B4605E0403102E0143144
:1005000000E05431CBB230BC43F08001002200F057
:100510000FB8012200F00CB870B50C46054603E098
:100520002846641CFFF7F5FF21780029F8D170BD3B
:100530007CB506460807040EF07A01F0F00518B104
:1005400045F0080544F00804012A01D02AB108E06A
:1005500045F0010544F0010403E025F0010524F015
:10056000010445F004008DF80400012000F0A4FA15
:100570008DF8055044F004008DF80600012000F0CD
:100580009BFA4FF47A708DF807400090317904237C
:1005900001AA306800F06EFC7CBD00000022102132
:1005A000014800F098BB0000000801400122102122
:1005B000014800F090BB000000080140124A037897
:1005C0001370407850704FF47A73B1FBF3F0303011
:1005D0009070B1FBF3F003FB10106423B0FBF3F059
:1005E0003030D070B1FBF3F003FB10130A20B3FBE3
:1005F000F0F330331371B1FBF0F300FB1310303024
:100600005071002090717047060000207047000074
:10061000F8B50024009490F824202546012A12D031
:10062000012280F824204A681F23072A0DD2066879
:10063000776B521E02EB820293409F430B689340FC
:100640001F43776319E00220F8BD06680D2A0AD21D
:10065000376BD21F02EB820293409F430B6893409B
:100660001F43376309E0F76A0D3A02EB82029340B9
:100670009F430B6893401F43F7620A68072306688D
:100680000A2A0AD3F7680A3A02EB420293409F43D0
:100690008B6893401F43F76008E0376902EB420222
:1006A00093409F438B6893401F4337610A68102A29
:1006B00001D0112A20D1124B02689A4217D19368B7
:1006C0001B0219D4936843F400039360096810294E
:1006D00012D10C490C4A0968B1FBF2F101EB81011E
:1006E000490000E0491E00910029FBD104E0816A25
:1006F00041F020018162012480F824502046F8BD99
:10070000002401402800002040420F000068C06C17
:10071000704700002DE9F0414FF0000704003D460E
:100720007ED0A06A002628B9E66284F824602046BC
:1007300000F07EF82046FFF7CFFDA16AC90600D47D
:1007400020B1A06A40F01000A06269E0A16A21F423
:10075000885141F00201A1626268E169237B0A438A
:1007600047EA43010A43A1684FF48077B94209D0B0
:10077000012907D05FF0000194F814C0BCF1010F0B
:1007800002D00AE03946F7E7F3B1A36A43F0200349
:10079000A362E36A43F00103E3622368D3F804C071
:1007A0002CF4694C4CEA010CC3F804C021688B6836
:1007B000DFF870C003EA0C0313438B60A168B942F1
:1007C0000BD0012909D00CE0DFF85CC0A3690CEB69
:1007D00043330B4343F40061DFE7218A0D05A5F5A0
:1007E00080152168CB6A23F470032B43CB62216808
:1007F00089680E4B1940914208D1E662A16A21F046
:10080000020141F00101A162BDE8F081A06A20F07F
:10081000020040F01000A062E06A40F00100E062D7
:100820000120F1E7FDF7E1FF00E0FFFFFE0E1FFFF3
:1008300000B585B0002100910191029103910068FB
:100840000E49884217D10E48816941F400718161D7
:10085000816901F400710491816941F004018161B1
:100860008069694600F00400049003200090019024
:10087000044800F033F905B000BD00000024014039
:1008800000100240000801402DE9F84300270D4602
:100890000446009700F024FA804620688168C90564
:1008A00008D5A06A40F02000A06284F824700120DE
:1008B000BDE8F8834168C90503D4C06A10F4700F1D
:1008C0002AD0022000F024FC3B490968B1FBF0F675
:1008D0002068036939490B424FEA61014FEAA112CE
:1008E0001FD1C3684FEA611C13EA0C0F19D10369C9
:1008F0000B4225D1C068104222D1142023E0681C8D
:100900000AD02DB100F0ECF9A0EB0800A84203D901
:1009100020680068800725D5206800688007EED52C
:100920002DE003690B4202D1C168114206D0026971
:1009300023490A4206D1C068084203D1542002E08C
:10094000292000E0FC204643009816E0681C11D0E6
:100950002DB100F0C5F9A0EB0800A8420AD9009813
:10096000B04207D2A06A40F00400A06284F824706C
:1009700003209DE70098401C0090B042E6D3216818
:100980006FF012000860A06A40F40070A062206856
:100990008068C0F3424007280CD1207B50B9A06A80
:1009A00020F48070A062A06AC00403D4A06A40F062
:1009B0000100A06200207BE7280000202449922447
:1009C0004992240070B5044690F8240001280DD007
:1009D000012084F824002046FFF7AAFC02004FF013
:1009E000000005D084F82400104670BD022070BDC0
:1009F000A16A40F20123994341F48071A1621F4D25
:100A000023681F49AB4218D10E6816F4702F14D01A
:100A1000A66A46F48016A6620E68760505D5A66A13
:100A200026F4005646F48056A662A66AF6040AD555
:100A3000E66A26F00606E66206E0A66A26F4801656
:100A4000A6625E68E9E7E06284F824006FF00200C5
:100A5000186020688368C3F34243072B05D1A8427E
:100A600008D1096811F4702F04D0816841F4801115
:100A70008160B9E7816841F4A001F9E700280140ED
:100A80000424014010B5044690F82400012807D042
:100A9000012084F824002046FFF71EFC10B107E077
:100AA000022010BDA16A21F4885141F00101A16228
:100AB000002184F8241010BD70B5044600F010F930
:100AC0000546601C02D004480078044400F008F990
:100AD000401BA042FAD370BD1C0000202DE9F84F46
:100AE000DFF8B891002409F1040A0AF1040B234647
:100AF0000F270BF1040EC9E00125A5402A40AA42A8
:100B00007DD1674ED1F804C0ACEB0608B44532D0B5
:100B100014DCBCF1030F3AD009DCBCF1000F2AD081
:100B2000BCF1010F1CD0BCF1020F31D11DE0BCF1B2
:100B3000110F17D0BCF1120F2AD119E0B8F5881F98
:100B400019D006DCB8F5803F15D0B8F5801F1FD14D
:100B500011E0B8F5001F0ED0B8F5041F18D10AE057
:100B6000CB6815E0CB681B1D12E0CB6808330FE0A3
:100B7000CB680C330CE08B682BB1012B4FF00803D2
:100B800003D0456104E0042302E0056100E0002396
:100B9000FF2A01D8064601E000F104064FEA840569
:100BA00001D9A5F12005D6F8008007FA05FC28EA4E
:100BB0000C0803FA05F548EA0508C6F800804D68F8
:100BC000ED0062D5374DAE6946F00106AE61AD6904
:100BD00024F0030605F001050095334D06EB050CE6
:100BE000DCF80850A607360F07FA06F825EA0805CC
:100BF000DFF8B880404503D14FF0000817E044E02B
:100C0000DFF8AC80404502D14FF001080FE0DFF87B
:100C1000A480404502D14FF0020808E0DFF8988038
:100C2000404502D14FF0030801E04FF0040808FAF4
:100C300006F848EA0508CCF808804D68D9F8006045
:100C4000ED034D4601D5164300E096432E604D68F6
:100C5000DAF80060AD03554601D5164300E096432F
:100C60002E604D68DBF80060ED025D4601D516434D
:100C700000E096432E604D68DEF80060AD027546D8
:100C800001D5164300E096432E60641C0D682A4689
:100C9000E5407FF431AFBDE8F88F0000000401406B
:100CA0000000111000100240000001400008014047
:100CB000000C014000100140001401408068084011
:100CC00000D001207047C26821EA02030A4043EACB
:100CD0000241016170470AB1016170470904FBE7F5
:100CE00001488068704700001C00002070B50400B7
:100CF00025D094F83D00002520B984F83C502046CA
:100D000000F04EF9242084F83D002068016821F0AD
:100D1000010101602068016841F400410160206820
:100D2000016821F40041016000F062FB4D4A6168F6
:100D3000914201D84C4900E04C49884201D201203F
:100D400070BD4B492368B0FBF1F15E6826F03F06A9
:100D50000E435E606368934206D94FF4967359431D
:100D60004FF47A73B1FBF3F12368491C1E6A26F035
:100D70003F06314319626168914210D84900401E14
:100D8000B0FBF1F2521CC2F30B02042A01D2042080
:100D900022E0B0FBF1F0401CC0F30B001CE0A268A5
:100DA000F2B301EBC10303EB0116431EB3FBF6F3F1
:100DB0005B1C43F480431B0549D092B301EBC10295
:100DC00002EB0111401EB0FBF1F0401CC0F30B0020
:100DD00040F4804040F400402168CA694CF6FF733B
:100DE0009A431043C861D4E90710014320680268A0
:100DF00022F0C00211430160D4E9030101432068DD
:100E0000826848F2FF339A4311438160D4E90501B7
:100E100008432168CA6822F0FF021043C86001E05D
:100E20000EE016E02068016841F0010101602564D0
:100E3000202084F83D00256384F83E50002070BDDA
:100E400001EB4106431EB3FBF6F35B1CB3E7012045
:100E5000C2E701EB4101401EB0FBF1F0401CC0F3C2
:100E60000B00B7E7A086010080841E0000093D004A
:100E700040420F002DE9F84F1F4690468A4604462F
:100E8000DDF82890FFF72CFF054694F83D00202858
:100E90007FD11923012240492046009501F04CF8EA
:100EA000002876D194F83C00012872D0012084F803
:100EB0003C0020680168C90703D1016841F00101C5
:100EC00001602068016821F400610160212084F83C
:100ED0003D00102084F83E0000262664C4F82480DB
:100EE0006785608D20852D48E0622B464A46514635
:100EF000204600F0ADFF90B92068416980690090FC
:100F000036E02A464946204601F095F850B1206C5B
:100F1000042804D12068016841F4007101600120B7
:100F2000BDE8F88F606A216800780861606A401C3B
:100F30006062618D491E6185218D491E89B22185BE
:100F400022685369DB435B070BD451B10078106111
:100F5000606A401C6062608D401E6085208D401E6E
:100F600020852A464946204600F0C0FF0028CED101
:100F7000208D0028C5D154F83D0B016841F4007163
:100F80000160202004F81E09E67766770020C7E795
:100F9000FFE70220C4E70000020010000000FFFF8E
:100FA00010B586B000210091019102910391006873
:100FB0000F4988421AD10F4CA06940F00800A06187
:100FC000A069694600F008000490C020009012203B
:100FD0000190032003900848FFF780FDE06940F48A
:100FE0000010E061E06900F40010049006B010BD4C
:100FF0000054004000100240000C0140024881688B
:1010000002781144816070471C000020074810B529
:10101000016841F010010160032000F067F80F2023
:1010200000F006F800F024F8002010BD0020024077
:1010300070B50D4D04464FF47A712878B1FBF0F08D
:101040000A490968B1FBF0F000F09BFE48B9102C8A
:1010500007D200222146501E00F028F800206C60C4
:1010600070BD012070BD00001C0000202800002081
:101070000C4808B5816941F001018161816901F085
:1010800001010091C16941F08051C161C06900F066
:10109000805000900448416821F0E06141F0007107
:1010A000416008BD0010024000000140F0B40E4B4A
:1010B0001B680C46C3F30223C3F10705042D00D9B6
:1010C0000425191D072901D2002300E0DB1E01269B
:1010D00006FA05F1491E214099409E40761E1640B1
:1010E0003143F0BC01F087BA0CED00E0064900F096
:1010F000070208684FF6FF03184040EA0220034A3F
:1011000010430860704700000CED00E00000FA0595
:1011100010B529A401461DCC86B08DE81D002AA07B
:101120002A4C006804900020012923D002293AD0DB
:1011300010291DD161682268D20119D5C1F38342FB
:10114000C9031DF8020009D5616804AAC1F3404132
:10115000515C1F4AB2FBF1F1484301E01D4948438D
:101160006168490204D440005FF00301B0FBF1F074
:1011700006B010BD226AC2F30121012903D19207F2
:1011800001D5C803F4E7022905D1626A920702D5A6
:1011900049F64040ECE70329EAD121688903E7D505
:1011A0004FF22440E4E700F033F96168C1F3813184
:1011B000491C4900DAE70000020304050607080994
:1011C0000A0B0C0D0E0F101001020000001002405F
:1011D00000127A0000093D002DE9F8430546007829
:1011E000354CC00754D0E0690026C00008D4E0693F
:1011F00040F08050E061E069012600F080500090EE
:101200002E480168C90512D40168804641F48071F6
:101210000160FFF765FD074605E000BFFFF760FDD1
:10122000C01B642823D8D8F80000C005F6D5206A72
:1012300010F4407021D0A98801F4407181421CD083
:10124000206A1F49012220F440700A6000220A60CF
:101250002062C00711D0FFF743FD074641F28838EE
:1012600008E000BFFFF73CFDC11B414502D9032048
:10127000BDE8F883206A8007F4D5206A696820F405
:101280004070084320621EB1E06920F08050E061A8
:101290002878800705D56068A96820F44040084395
:1012A00060602878C00605D56068E96820F4800091
:1012B000084360600020DBE700100240007000403F
:1012C000400442422DE9F0470F46050061D0434EED
:1012D000306800F00700B84209D2306820F00700FB
:1012E00038433060306800F00700B84251D12868B8
:1012F0003B4C810712D5400703D5606840F4E0609D
:1013000060602878000703D5606840F46050606032
:101310006068A96820F0F000084360602878C00782
:1013200028D06868012810D02168022810D08907C9
:1013300000292EDA616821F0030101436160FFF7A3
:10134000CFFC804641F288390DE021688903EFE740
:101350008901EDE7FFF7C4FCA0EB0801494502D97C
:101360000320BDE8F0876068696800F00C00B0EB0E
:10137000810FEFD1306800F00700B8420BD9306818
:1013800020F0070038433060306800F00700B842B2
:1013900001D00120E5E72878400705D56068E968B5
:1013A00020F4E060084360602878000706D5606894
:1013B000296920F4605040EAC100606000F038F80C
:1013C0006168084AC1F30311515CC84006490860CE
:1013D00006480068FFF72CFE0020C2E7002002400C
:1013E00000100240F0280008280000202000002003
:1013F0000448054900684968044AC1F30221515C68
:10140000C840704728000020001002400029000852
:101410000448054900684968044AC1F3C221515C87
:10142000C840704728000020001002400029000832
:1014300012A185B00FC98DE80F0014A0144A0068EE
:1014400004905168134801F00C03042B10D0082BB2
:101450000ED1C1F38343C9031DF803000AD55168B7
:1014600004AAC1F34041515C0A4A5043B0FBF1F079
:1014700005B0704708494843FAE700000203040535
:10148000060708090A0B0C0D0E0F101001020000D0
:101490000010024000127A0000093D002DE9F84FCB
:1014A000040070D02078C04DC00749D06868C0F3F0
:1014B0008100012807D06868C0F38100022809D1A3
:1014C0006868C00306D52868800339D5606800289D
:1014D000E7D035E06068B0F5803F0BD010B1B0F5D3
:1014E000A02F11D0286820F480302860286820F4CC
:1014F000802002E0286840F480302860606890B165
:10150000FFF7EEFB06460AE0286840F480202860DA
:10151000F0E700BFFFF7E4FB801B642873D828685E
:101520008003F7D50CE0FFF7DBFB064605E000BFC4
:10153000FFF7D6FB801B6428F0D828688003F7D417
:1015400020789A4E80074FF001094FF0000839D5F6
:10155000686810F00C0F07D06868C0F3810002289B
:1015600009D16868C00306D42868800714D52069AB
:10157000012808D110E02069B0B1C6F80090FFF74B
:10158000AFFB074605E00AE1FFF7AAFBC01B0228F4
:10159000C4D828688007F7D52868616920F0F8006A
:1015A00040EAC10028600DE0C6F80080FFF798FB14
:1015B000074604E0FFF794FBC01B022823D82868E5
:1015C0008007F7D4207800072CD57948A169D9B1D4
:1015D000C0F80090FFF784FB074604E0FFF780FBAC
:1015E000C01B02280FD8686A8007F7D571484FF4EE
:1015F000FA510068B0FBF1F0009000BF0098411E66
:101600000091FAD20EE080E0C0F80080FFF768FB9E
:10161000074604E0FFF764FBC01B022875D8686A20
:101620008007F7D42078400760D5E8690027C0001C
:1016300008D4E86940F08050E861E869012700F0CB
:10164000805000905C480168C90513D40168834646
:1016500041F480710160FFF743FB824606E000BF62
:10166000FFF73EFBA0EB0A0064284ED8DBF8000031
:10167000C005F5D5E06801280AD008B1052813D0C7
:10168000286A20F001002862286A20F0040002E0A5
:10169000286A40F001002862E06841F2883B98B176
:1016A000FFF71EFB82460BE0286A40F00400286228
:1016B000EEE700BFFFF714FBA0EB0A0159455AD82B
:1016C000286A8007F6D50CE0FFF70AFB824605E0A2
:1016D000FFF706FBA0EB0A0159454CD8286A8007A2
:1016E000F6D41FB1E86920F08050E861E06988B362
:1016F0006968C1F38101022944D00228C6F86080DC
:1017000004D0FFF7EDFA044638E034E0FFF7E8FADA
:10171000074604E0FFF7E4FAC01B02282BD828682C
:101720008001F7D4206AB0F5803F05D16868A168D0
:1017300020F4003008436860D4E908010843696870
:1017400021F4741108436860C6F86090FFF7C8FA86
:10175000044606E025E000BFFFF7C2FA001B02289E
:1017600009D828688001F7D51BE000BFFFF7B8FA59
:10177000001B022802D90320BDE8F88F28688001E9
:10178000F4D40EE00128F7D06868226A00F48031B2
:10179000914204D1616A00F47010884201D00120A6
:1017A000EAE70020E8E700000010024000004242A3
:1017B00080044242280000200070004070B5040000
:1017C00009D0606A002540B125616561A56294F881
:1017D000510040B10CE0012070BD6068B0F5827F1F
:1017E000F4D0E561F2E784F85050204600F040F86C
:1017F000022084F851002068016821F04001016056
:10180000A088218900F4827001F404410843A18971
:1018100001F400610843217C01F002010843217DAD
:1018200001F001010843218B01F400710843217F7D
:1018300001F03801084394F8201001F080010843BA
:10184000218D01F40051084321680860A06904213A
:1018500001EA1040216848602068C16921F40061F4
:10186000C1616565012084F85100002070BD000051
:1018700030B585B00024009401940294039400686C
:101880001449884223D11448816941F4805181610F
:10189000816901F480510491816941F00401816101
:1018A00080690E4D00F004000490A02000900220FA
:1018B00001900320039069462846FFF70FF9402066
:1018C000CDE90004694628460294FFF707F905B000
:1018D00030BD00000030014000100240000801400F
:1018E0002DE9F84F044640680025984616460F46F5
:1018F0004FF0040BB0F5827F01D1A06888B194F855
:101900005000012818D0012084F85000FFF7E8F9B2
:10191000814694F851004FF0000A01280ED00225AC
:1019200082E084F851B013460A462046CDF8008084
:1019300000F036F9BDE8F88F0220FBE7002F72D0E7
:10194000002E70D084F851B0C4F854A0A763A687C5
:10195000E687C4F830A0A4F834A0A4F836A0C4F8F0
:1019600040A0C4F844A0A068B0F5004F09D1206899
:10197000016821F0400101602068016821F4804184
:10198000016020680168490603D4016841F0400104
:101990000160E068D8B139E020688168C90709D0E2
:1019A000007BA16B0870A06B401CA063E08F401E01
:1019B000E0870CE0FFF794F9A0EB0901414503D360
:1019C000B8F1FF3F03D036E0B8F1000F33D0E08F1D
:1019D0000028E1D11DE020688168C90709D0C068EE
:1019E000A16B0880A06B801CA063E08F401EE08785
:1019F0000CE0FFF775F9A0EB0901414503D3B8F1FD
:101A0000FF3F03D017E0B8F1000F14D0E08F00289B
:101A1000E1D14A464146204600F0E4FC08B12020CE
:101A20006065606D00B10125012084F8510084F8E3
:101A300050A028467EE70325F6E72DE9F84F044637
:101A400090F8500000271D461646894601280DD003
:101A50004FF0010B84F850B0FFF742F9804694F83C
:101A60005100BA46012804D0022793E00220BDE8C5
:101A7000F88FB9F1000F73D0002E71D0032084F8D5
:101A80005100C4F854A0C4F83090A686E686C4F885
:101A900038A0A4F83CA0A4F83EA0C4F844A0C4F820
:101AA00040A0A068B0F5004F09D12068016821F07E
:101AB000400101602068016841F4804101602068B4
:101AC0000168490603D4016841F040010160E06803
:101AD000B0F5006F606803D030B3012E24D041E030
:101AE00008B1012E1CD1206B21680088C86006E077
:101AF00020688168890709D5216B0988C160206B3E
:101B0000801C2063E08E401EE08609E0FFF7E8F8C5
:101B1000A0EB0800A84202D3681C01D031E07DB3DD
:101B2000E08E0028E4D120E0206B21680078087363
:101B300006E020688168890709D5216B097801735F
:101B4000206B401C2063E08E401EE0860AE0FFF719
:101B5000C7F8A0EB0800A84203D3681C02D010E02D
:101B600017E06DB1E08E0028E3D1424629462046B9
:101B700000F066FC08B120206065A06818B106E09E
:101B8000FFE7032706E02068C16880680090606D69
:101B900000B1012784F851B084F850A0384666E7B8
:101BA0002DE9F84F044690F8500000270A9E1D4684
:101BB00092468B464FF0010901280ED0012084F88F
:101BC0005000FFF78DF8804694F8510061680128B5
:101BD0000CD0B1F5827F07D102E00220BDE8F88F7A
:101BE000A16809B9042801D00227C2E0BBF1000FA7
:101BF00027D0BAF1000F24D01DB394F85100042867
:101C000002D0052084F8510000206065C4F838A097
:101C1000E587A587C4F830B0E586A58620646064B2
:101C200020680168490603D4016841F04001016061
:101C3000E068B0F5006F606805D0E8B3012D46D0CC
:101C40007FE0012795E008B1012D39D1206B216893
:101C50000088C860206B801C2063E08E401EE086F8
:101C60002EE02068816889070FD5E18E69B1B9F14E
:101C7000010F0AD1216B0988C160206B801C206391
:101C8000E08E401EE0864FF0000920688168C90799
:101C90000CD0E18F51B1C068A16B0880A06B801C93
:101CA000A063E08F401EE0874FF00109FFF718F8AE
:101CB000A0EB0800B04200E009E001D3701C50D155
:101CC000E08E0028CDD1E08F0028CAD13FE0206B04
:101CD000216800780873206B401C2063E08E401E52
:101CE000E0862EE02068816889070FD5E18E69B112
:101CF000B9F1010F0AD1216B09780173206B401CE7
:101D00002063E08E401EE0864FF000092068816865
:101D1000C9070CD0E18F51B1C068A16B0870A06BEE
:101D2000401CA063E08F401EE0874FF00109FEF7E2
:101D3000D7FFA0EB0800B04202D3701C01D010E026
:101D40007EB1E08E0028CDD1E08F0028CAD1424676
:101D50003146204600F074FB28B101272020606541
:101D600007E0032705E0A06818B92068C16880680B
:101D70000090012084F85100002084F8500038467B
:101D80002CE710B5401EB0F1807F01D3012010BDBB
:101D90004FF0E02460610F21601700F02CFC002060
:101DA000A06107202061002010BD00002DE9F04156
:101DB000164D4FF47A7740F6C4162968A5F10A0447
:101DC000A1F2DC50B8420BD9B14201D910A000E019
:101DD00010A0FEF7F3FB00F0A1FB207800F04CFA16
:101DE0006968A1F2DC50B8420DD9B14201D90AA00C
:101DF00000E00AA0FEF7E2FB00F090FB2078BDE8CF
:101E0000F04100F039BABDE8F08100001000002078
:101E10005530000042300000523000004C300000CD
:101E2000FEE701684A69D24352050FD46FF480621D
:101E30004A61002140F8301F2022427381730269F9
:101E400042F00402026101730120704700207047D4
:101E5000F8B50446C06A1E460D461746082807D046
:101E6000012805D010F5803F02D0206B122804D144
:101E70002068016841F480710160134600224FF030
:101E800001112046009600F057F840B12068006824
:101E9000C00502D54FF4007020640320F8BD20690E
:101EA000B0F5804F0ED00620216800EAD51040F032
:101EB000F000086133463A460B49204600F070F8BE
:101EC00078B902E005F0FE0000E0E8B221680861A0
:101ED000054933463A46891F204600F061F800283C
:101EE000DCD00120F8BD00000800010070B51646E6
:101EF0000D4604460DE02046FFF793FF08B1012090
:101F000070BD681C05D0FEF7EBFE801BA84207D809
:101F100035B120684069C0434007ECD4002070BD53
:101F2000002044F8300F20216173A073216941F033
:101F3000200121612073E2E72DE9F0471E4690461B
:101F40000D460446C1F30747DDF8209008E0701CF9
:101F500006D0FEF7C5FEA0EB0900B0420FD876B15F
:101F60002068012F18D0806925EA00000004000CC9
:101F700014D000214145EAD00020BDE8F0870020C0
:101F800044F8300F20216173A073216941F02001D2
:101F9000216120730120F0E74069E5E70121E9E7CD
:101FA0002DE9F0479A4691460E46044600254FF02B
:101FB0002008C1F3074725E020684069C043400579
:101FC00014D42068016841F40071016021686FF445
:101FD00080604861256384F83D8084F83E50206C21
:101FE00040F00400206484F83C501FE0B9F1FF3F4A
:101FF00008D0FEF775FEA0EB0A0149450CD8B9F1EF
:10200000000F09D02068012F13D0806926EA000054
:102010000004000C0BD0CFE744F8305F84F80D804B
:10202000A573206940F02000206125730120BDE8E0
:10203000F0874069EAE770B516460D4604460DE0A4
:102040002046FFF7EEFE08B1012070BD681C05D0E8
:10205000FEF746FE801BA84207D835B120684069CC
:10206000C0430006ECD4002070BD002044F8300FBF
:1020700020216173A073216941F020012161207347
:10208000E2E700002DE9F04186B0002428480094E2
:10209000019402940394816941F010018161816986
:1020A00001F010010491816941F020018161816991
:1020B00001F020010491816941F00401816181698D
:1020C00001F004010491816941F008018161806996
:1020D000184F00F008004FF40055049000222946E4
:1020E0003846FEF7F8FDDFF8508000221821404600
:1020F000FEF7F1FD0095022601250396CDE9015476
:1021000069463846FEF7EAFC1820CDE90005CDE91E
:10211000024669464046FEF7E1FCCDE900546946B7
:1021200006480295FEF7DAFC06B0BDE8F081000033
:10213000001002400010014000080140000C014066
:102140000F4810B50D4901604FF4827141600021C4
:102150008160C1604FF400720161C0E9051218226C
:10216000C0E90721416281620A21C162FFF726FBB3
:10217000002801D072B6FEE710BD0000003001401B
:10218000B0000020FEE7FEE710B5FEF735F90020AD
:1021900000F00AFB0021084600F0D4FA00210120DB
:1021A00000F0D0FA0021022000F0CCFA032108460A
:1021B00000F0C8FA0021042000F0C4FA0021052034
:1021C00000F0C0FA0E21062000F0BCFABDE8104075
:1021D000FEF71AB938B5044600208DF80000FEF766
:1021E000DDF9A0208DF80000642301226946124821
:1021F000FFF723FC4FF47A73202221460E48FFF7A5
:102200001CFCFEF7D3F90120FEF756FC172000F066
:102210007FFA0A490870C1060BD5000709D4E120EE
:102220008DF8000000F056FB172000F0BDFA0120E9
:1022300038BD002038BD0000B0000020180000208C
:1022400070B50D460446FEF7D7F82946052000F084
:1022500079FA05222146102000F08AFA002000F0C9
:1022600057FA40F00201002000F06CFABDE870401F
:10227000FEF7CAB87047000010B5044601220021DD
:102280001048FEF724F910A10E48FEF745F9012287
:1022900000210C48FEF71BF94C2C0BD0522C0BD014
:1022A000552C0BD0422C0BD109A1BDE8104005489C
:1022B000FEF732B908A1F8E709A1F6E70AA1F4E7A9
:1022C00010BD000008010020202020202000000078
:1022D0004241434B000000004C45465400000000C2
:1022E00052494748540000005550000010B5134CA7
:1022F00001212046FEF7E2FC00281DD10A20FEF74E
:10230000DBFB01212046FEF7D9FC002814D10C4943
:1023100001200A789043087001D00AA000E00AA0CA
:1023200000F00EF902E00A20FEF7C6FB012120466C
:10233000FEF7C4FC0028F6D010BD0000000C0140E0
:10234000000000204D3100004D30000010B5FEF7B8
:102350002DF81048FEF736FB01210E48FEF794FADF
:102360000C48FEF7D3F90C4C20600A48FEF78AFBB4
:10237000FEF72EF80748FEF725FB01210548FEF77A
:1023800083FA0448FEF7C2F96060BDE810400148D6
:10239000FEF778BB2C0000201000002010B5084C80
:1023A00009E000BFFFF7A2FFFFF7D0FFFFF7FEFC39
:1023B0003C20FEF781FB20780028F3D010BD000000
:1023C0000000002010B5064C05E000BFFFF78EFFAF
:1023D0003C20FEF771FB20780128F7D010BD0000EB
:1023E00000000020F8B5044640684FF4827398421C
:1023F00017D1A0684FF48065B0F5004F01D0A84216
:102400000FD12068066826F0400606606068984292
:1024100007D1A068A84204D100920B4600220121F6
:1024200003E000920B4600228021204600F018F8BD
:10243000002804D0606D40F0200060650320F8BDE6
:1024400038B50B46009204460022802100F008F8BF
:10245000002804D0606D40F020006065032038BD86
:102460002DE9F8431E46914688460446089DFEF72E
:1024700037FC401B351AFEF733FC07462548006839
:10248000C0F3CB30684338E0701C37D0FEF728FC2F
:10249000C01BA84203D215B1009860B32CE020689D
:1024A000416821F0E00141606068B0F5827F0BD1A6
:1024B000A068B0F5004F02D0B0F5806F04D120685D
:1024C000016821F040010160A06AB0F5005F09D108
:1024D0002068016821F4005101602068016841F41E
:1024E00000510160012084F85100002084F8500060
:1024F0000320BDE8F8830025401E00902068816815
:1025000038EA010004D000214945BDD10020F0E7A0
:102510000121F9E7280000207047000010B50648A7
:10252000FFF758FE012805D14103BDE810400348DC
:10253000FEF7C9BB10BD00000600002000100140DE
:102540000C4910B50022C1F806204A810A730146E1
:102550000848801DFDF738FE0648801DFFF73AFE4B
:10256000012805D14103BDE810400348FEF7ABBB8D
:1025700010BD00000000002000100140FEF73EBD2D
:1025800030B593B028216846FDF742FE14210AA811
:10259000FDF73EFE0024012108040F9410941294CC
:1025A0000491CDE90010CDE90804119402940225AC
:1025B00007956846FEF772FF08B172B6FEE70F2076
:1025C000CDE90A054FF48060CDE90C4000210AA84E
:1025D0000E94FEF777FE08B172B6FEE70FA80F95CE
:1025E0001194FEF7F9FD002801D072B6FEE713B092
:1025F00030BD7047FEE70907090E002804DB00F133
:10260000E02080F80014704700F00F0000F1E02097
:1026100080F8141D7047000008B5FEF7F7FCFFF7BF
:10262000AFFFFFF72FFDFFF78BFD1E481C4900246D
:102630000160891581600121017304754FF46022E6
:102640004460C2610161FEF765F808B172B6FEE749
:1026500014481549303001601449C0E901144FF4A1
:102660008041C0E9034144618461C4610462FEF7B2
:102670003DFB08B172B6FEE7FFF786FD0A210C4864
:10268000FFF7DEFD074902203031009010234E2273
:1026900001F1AC00FDF7CAFE00F00CF8FCE7000009
:1026A000002401402C00002000540040A0860100BE
:1026B000010000200C4810B5007800280B4809D014
:1026C000FDF7AAFE0AA10948FDF726FFBDE8104064
:1026D000FFF778BEFDF7A0FE09A10448FDF71CFF37
:1026E000BDE81040FFF75ABE00000020080100209E
:1026F0004D6F646520313A4175746F2052756E00DC
:102700004D6F646520303A4A6F79737469636B006A
:1027100001B582B000208DF80000FDF73FFF642373
:10272000012202A90648FFF788F9642301226946BD
:102730000348FFF7D5F8FDF739FF9DF800000EBDFF
:10274000B000002008B540F020008DF800008DF8A2
:102750000110FDF723FF4FF47A7302226946034804
:10276000FFF76BF9FDF722FF08BD0000B000002065
:1027700038B540F0200014460D468DF80000FDF7F6
:102780000DFF6423012269460648FFF756F9A2B2FD
:102790004FF47A7329460348FFF74FF9FDF706FF18
:1027A00038BD0000B000002000B587B007287FD0FA
:1027B00017287CD008210020FFF7C4FF3F2101200B
:1027C000FFF7C0FF03210220FFF7BCFF03210846EB
:1027D000FFF7B8FF03210420FFF7B4FF0221052013
:1027E000FFF7B0FF0E210620FFF7ACFF0021072006
:1027F000FFF7A8FF00210820FFF7A4FF0021092010
:10280000FFF7A0FF2FA00522D0E90010CDE90010AE
:1028100069460A20FFF7ACFF2CA00522D0E9001082
:10282000CDE9021002A90B20FFF7A2FFC3210C2063
:10283000FFF788FFC4210D20FFF784FFC5210E207C
:10284000FFF780FFC6210F20FFF77CFF1DA00522A8
:10285000D0E90010CDE9041004A91020FFF788FF8B
:1028600000211120FFF76EFF00211220FFF76AFF01
:1028700000211320FFF766FF00211420FFF762FFFD
:1028800000211520FFF75EFF00211620FFF75AFFF9
:1028900011211720FFF756FF00211C20FFF752FFE0
:1028A00000211D20FFF74EFF07B000BD00E002E051
:1028B0000021072001E01121172007B05DF804EB8B
:1028C000FFF740BFE7E7E7E7E7000000C2C2C2C288
:1028D000C200000001B5FDF761FE642301226946D4
:1028E0000248FFF7AAF8FDF761FE08BDB00000201E
:1028F00000000000000000000102030406070809B0
:102900000000000001020304282900080000002044
:102910002C00000028010008542900082C00002089
:102920004C0700004401000800EEDDCCBBAA00000B
:102930000000000000000000000000000000000097
:102940000000000001000000100000000000000076
:042950000024F4006B
:04000005080000ED02
:00000001FF
