:020000040800F2
:10000000D807002089010008EF1D0008C71B000861
:10001000ED1D000803040008412500080000000051
:10002000000000000000000000000000191E000891
:100030003D04000800000000F11D00081D1E00081E
:10004000A3010008A3010008A3010008A301000800
:10005000A3010008A3010008A3010008A3010008F0
:10006000A3010008A3010008A3010008A3010008E0
:10007000A3010008A3010008A3010008050400086B
:10008000A3010008A3010008A3010008A3010008C0
:10009000A3010008A3010008A301000895040008BB
:1000A000A3010008A3010008A3010008A3010008A0
:1000B000A3010008A3010008A3010008A301000890
:1000C000A3010008A3010008A3010008A301000880
:1000D000A301000835250008A3010008A3010008BA
:1000E000A3010008A3010008A301000800F002F822
:1000F00000F03AF80AA090E8000C82448344AAF188
:100100000107DA4501D100F02FF8AFF2090EBAE885
:100110000F0013F0010F18BFFB1A43F0010318473B
:10012000D0310000F0310000103A24BF78C878C107
:10013000FAD8520724BF30C830C144BF04680C60ED
:10014000704700000023002400250026103A28BF35
:1001500078C1FBD8520728BF30C148BF0B60704739
:100160001FB51FBD10B510BD00F012F91146FFF705
:10017000F7FF02F075FB00F030F903B4FFF7F2FF70
:1001800003BC00F037F900000948804709480047E0
:10019000FEE7FEE7FEE7FEE7FEE7FEE7FEE7FEE737
:1001A000FEE7FEE704480549054A064B7047000094
:1001B000FF1E0008ED000008D8010020D80700202D
:1001C000D8030020D803002010B54C1084EA530453
:1001D00004D54042C1F1000138BF491E1B4204D57D
:1001E0005242C3F1000338BF5B1E00F05AF814F00E
:1001F000804F04D04042C1F1000138BF491E14F0C5
:10020000004F04D05242C3F1000338BF5B1E10BD43
:1002100010B5431C02E010F8011B71B18107FAD13F
:100220004FF0013202C88C1A8C4314EAC211F9D083
:10023000C01A0A0603D0C01E10BDC01A10BD0A04A1
:1002400001D0801E10BD0902FCD0401E10BD4FF031
:10025000000200B5134694469646203922BFA0E816
:100260000C50A0E80C50B1F12001BFF4F7AF090722
:1002700028BFA0E80C5048BF0CC05DF804EB890013
:1002800028BF40F8042B08BF704748BF20F8022B56
:1002900011F0804F18BF00F8012B7047704770476E
:1002A000704753EA020C00F069802DE9F04B4FF0E3
:1002B0000006002B1FBFB3FA83F503FA05F424FAF6
:1002C00005F65E4012BF1643B2FA82F502FA05F453
:1002D000C5F120051EBF22FA05FC44EA0C042035B6
:1002E00056EA044C4FEA144418BF641C4FF000084F
:1002F0004FF00009904271EB030C39D3002919BF6C
:10030000B1FA81F701FA07F6B0FA80F700FA07F6BA
:10031000C7F120071EBF20FA07FC46EA0C0620376B
:10032000B6FBF4FCA7EB0507103F07F01F0BCBF162
:1003300020060CFA0BFB2CFA06F644BFB346002647
:10034000202FA4BF5E464FF0000B5BEA060C08BFEF
:100350004FF0010B19EB0B09ABFB027C48EB0608D5
:10036000C01B06FB02CC0BFB03CC71EB0C01C1E7FD
:100370000B46024641464846BDE8F08B13B54FF0A8
:1003800000004FF00001AFF30080BDE81C40704753
:10039000754600F02BF8AE4605006946534620F03E
:1003A0000700854618B020B5FFF7FCFEBDE82040E9
:1003B0004FF000064FF000074FF000084FF0000B21
:1003C00021F00701AC46ACE8C009ACE8C009ACE8D4
:1003D000C009ACE8C0098D46704710B50446AFF3BC
:1003E00000802046BDE81040FFF7C7BE00487047B8
:1003F0007401002001491820ABBEFEE72600020070
:100400007047FEE7014800F0B9B800003001002055
:1004100030B590F840500124AC40C56B6C60046866
:1004200063604368102B04D0036899600068C26061
:1004300030BD03689A600068C16030BD704700003D
:100440000649002048814FF0E020016921F00101B8
:1004500001610348006800F0FFBB000000000020BD
:100460002C000020094A0121518109494FF47A7278
:100470000968B1FBF2F141434FF0E02041610021F6
:100480008161016941F007010161704700000020AE
:1004900034000020802000F0ABB972B6FEE710B542
:1004A00090F821100022022905D00421816380F8F0
:1004B0002020012010BD01680B6823F00E030B60A3
:1004C00001680B6823F001030B6090F84030C46BA7
:1004D000012101FA03F3636080F8211080F82020E5
:1004E000104610BD10B5002490F82110022903D049
:1004F0000421816301243DE001680A6822F00E02B4
:100500000A6001680A6822F001020A601A4A01685A
:10051000914201D1012121E0174A1432914201D1C7
:1005200010211BE0144A2832914201D1891515E0AF
:10053000114A3C32914201D189140FE00E4A5032E7
:10054000914202D14FF4803108E00B4A643291426B
:1005500002D14FF4801101E04FF08071064A083A51
:100560005160012180F82110002180F82010416B9A
:1005700001B18847204610BD080002402DE9F05F18
:10058000C16B0A6801680B68046C4FF0040A0AFA30
:1005900004FA4E4D4E4E4F4FDFF83CC1DFF83C8120
:1005A000DFF83C911AEA020F31D05FEA437A2ED588
:1005B0000A68920603D40A6822F004020A600168FD
:1005C000A94201D1042119E0B14201D1402115E035
:1005D000B94202D14FF4806110E0614502D14FF47D
:1005E00080410BE0414502D14FF4802106E04945AE
:1005F00002D14FF4800101E04FF08061334A083AA4
:100600005160C16A00295FD0BDE8F05F08474FF034
:10061000020E0EFA04FE1EEA020F4FF0000A4FF01F
:10062000010B35D05FEA837E32D50A68920605D485
:100630000A6822F00A020A6080F821B00168A94223
:1006400001D1022119E0B14201D1202115E0B942C6
:1006500002D14FF4007110E0614502D14FF4005116
:100660000BE0414502D14FF4003106E0494502D18B
:100670004FF4001101E04FF00071144A083A516044
:1006800080F820A0816A00291ED0BDE8F05F0847ED
:100690000825A540154217D01A0715D50A6822F07B
:1006A0000E020A6090F84010C26B0BFA01F1516023
:1006B000C0F838B080F821B080F820A0016B002984
:1006C00002D0BDE8F05F0847BDE8F09F0800024097
:1006D0001C0002403000024044000240580002402A
:1006E0006C00024030B5002827D0001D144A50F895
:1006F000041C14230A44B2FBF3F29200C263114AB1
:100700008263022242770A6843F6F0739A43D0E983
:1007100000342343D0E902452C4323430469234397
:10072000446923438469234313430B6000214163DD
:10073000012242770177002030BD012030BD00004A
:10074000F8FFFDBF0000024070B50446002594F894
:10075000200001280CD0012084F8200094F82160AA
:100760000020012E06D084F820000225284670BD06
:10077000022070BD022684F82160A063206806680C
:1007800026F0010606602046FFF742FEE06A28B127
:100790002068016841F00E01016009E020680168ED
:1007A00021F0040101602068016841F00A01016044
:1007B0002068016841F001010160D7E770B5044687
:1007C00000F030F90546601C02D00448007804446B
:1007D00000F028F9401BA042FAD370BD2800002089
:1007E0000248018A491C0182704700000000002075
:1007F00010B504490A68024202D00860FFF7F0FF12
:1008000010BD0000140401402DE9F84F002400231E
:10081000DFF8C4914FF00F0809F1040A0AF1040B44
:100820000BF1040ED1E00127A7403A40BA4275D13E
:10083000DFF8A8C14D68A5EB0C0665452BD00DDC93
:10084000032D34D005DC35B3012D19D0022D2FD165
:100850001BE0112D16D0122D2AD119E0B6F5881FF4
:1008600019D006DCB6F5803F15D0B6F5801F1FD134
:1008700011E0B6F5001F0ED0B6F5041F18D10AE03E
:10088000CB6815E0CB681B1D12E0CB6808330FE086
:10089000CB680C330CE08B6823B1012B04D0082308
:1008A000476105E0042303E00823076100E000231B
:1008B000FF2A01D8054601E000F1040502D84FEAFD
:1008C000840603E0A4F108064FEA86062F6808FABA
:1008D00006FC27EA0C0703FA06F647EA06072F602C
:1008E0004D68ED0070D53E4DAE6946F00106AE6133
:1008F000AD6905F0010500953A4D24F0030677191E
:10090000BE68A5072D0F08FA05FC26EA0C06DFF8DD
:10091000D8C0604503D14FF0000C17E054E0DFF879
:10092000CCC0604502D14FF0010C0FE0DFF8C0C031
:10093000604502D14FF0020C08E0DFF8B8C0604516
:1009400002D14FF0030C01E04FF0040C0CFA05FC4F
:100950004CEA060CC7F808C04D68ED0305D5D9F878
:1009600000501543C9F8005004E0D9F800509543F1
:10097000C9F800504D68AD0305D5DAF800501543AD
:10098000CAF8005004E0DAF800509543CAF8005065
:100990004D68ED0205D5DBF800501543CBF800504B
:1009A00004E0DBF800509543CBF800504D68AD02F1
:1009B00005D5DEF800501543CEF8005004E0DEF80F
:1009C00000509543CEF80050641C0A6832FA04F5D2
:1009D0007FF429AFBDE8F88F00040140000011103A
:1009E000001002400000014000080140000C0140DE
:1009F00000100140001401408068084201D001202D
:100A0000704700207047C26821EA02030A4043EAA7
:100A1000024101617047002A01D001617047090459
:100A2000016170470148806870470000280000207D
:100A300070B50446002C04D094F83D00002510B198
:100A400006E0012070BD84F83C50204600F0BCF860
:100A5000242084F83D002068016821F00101016034
:100A60002068016841F4004101602068016821F4B8
:100A70000041016000F030FA4F4B6168994203D8A1
:100A80004E49884203D304E04D49884201D20120F7
:100A900070BD4C49B0FBF1F12268566826F03F0664
:100AA0000E43566062689A4201D8491C07E04FF431
:100AB000967251434FF47A72B1FBF2F1491C2268ED
:100AC000166A26F03F06314311626168994210D8D8
:100AD0004900401EB0FBF1F2521CC2F30B02042A83
:100AE00001D2042022E0B0FBF1F0401CC0F30B0067
:100AF0001CE0A268F2B301EBC10303EB0116431E35
:100B0000B3FBF6F35B1C43F480431B0549D092B35F
:100B100001EBC10202EB0111401EB0FBF1F0401CE1
:100B2000C0F30B0040F4804040F400402168CA69E3
:100B30004CF6FF739A431043C861D4E90710014390
:100B40002068026822F0C00211430160D4E9030169
:100B500001432068826848F2FF339A431143816061
:100B6000D4E9051001432068C26822F0FF02114356
:100B7000C16001E00EE016E02068016841F001016B
:100B800001602564202084F83D00256384F83E50F0
:100B9000002070BD01EB4106431EB3FBF6F35B1C66
:100BA000B3E70120C2E701EB4101401EB0FBF1F0C9
:100BB000401CC0F30B00B7E7A086010080841E0034
:100BC00000093D0040420F0010B586B0002102919F
:100BD00003910491059100680F4988421AD10F4C86
:100BE000A06940F00800A061A06900F00800019031
:100BF000C0200290122003900320059002A908480B
:100C0000FFF702FEE06940F40010E061E06900F4E3
:100C10000010019006B010BD0054004000100240CA
:100C2000000C0140024881680278114481607047DD
:100C30002800002010B50748016841F0100101604C
:100C4000032000F077F80F2000F006F800F026F8F7
:100C5000002010BD0020024070B504460D4D4FF439
:100C60007A712878B1FBF0F00B490968B1FBF0F01C
:100C700000F04EFB08B1012070BD102C07D20022FD
:100C80002146501E00F036F86C60002070BD012037
:100C900070BD0000280000203400002008B50C487A
:100CA000816941F001018161816901F001010091D7
:100CB000C16941F08051C161C06900F0805000906D
:100CC0000449486820F0E06040F00070486008BDCA
:100CD0000010024000000140002809DB00F01F0264
:100CE000012191404009800000F1E020C0F800118E
:100CF00070470000F0B40D460D4B1B68C3F3022390
:100D0000C3F10704042C00D90424191D072901D2BA
:100D1000002300E0DB1E012606FA04F1491E2940EB
:100D200099409E40761E16403143F0BC01F009BC4C
:100D30000CED00E000F00701054A10684FF6FF03D4
:100D4000184040EA01200349084310607047000042
:100D50000CED00E00000FA050648026822F00402EB
:100D60000260012903D040BF20BF20BF704730BFC1
:100D70007047000010ED00E02DE9F04704460D46F5
:100D8000002C17D0DFF83081D8F8000000F0070001
:100D9000A84211D2D8F8000020F007002843C8F874
:100DA0000000D8F8000000F00700A84204D001209D
:100DB000BDE8F0870120FBE72068404E810712D58F
:100DC000400703D5706840F4E06070602078000749
:100DD00003D5706840F4605070607068A16820F0BE
:100DE000F000084370602078C0072CD060680128AC
:100DF00006D0022809D0316889070BD40120D7E733
:100E00003168890306D40120D2E73168890101D411
:100E10000120CDE7716821F0030101437160FFF704
:100E200001FE074641F2883906E0FFF7FBFDC01BD3
:100E3000484501D90320BBE77068616800F00C00E9
:100E4000B0EB810FF1D1D8F8000000F00700A84204
:100E50000ED9D8F8000020F007002843C8F8000099
:100E6000D8F8000000F00700A84201D001209FE759
:100E70002078400705D57068E16820F4E0600843F9
:100E800070602078000706D57068216920F46050F2
:100E900040EAC100706000F03FF87168084AC1F391
:100EA0000311515CC8400749086007480068FFF714
:100EB000D3FE00207CE7000000200240001002402A
:100EC000D6320008340000202C00002001480068C1
:100ED000704700003400002000B5FFF7F7FF044919
:100EE0004968044AC1F30221515CC84000BD0000BA
:100EF00000100240E632000800B5FFF7E7FF0449A2
:100F00004968044AC1F3C221515CC84000BD0000D9
:100F100000100240E632000885B014A090E80E00F0
:100F2000C068CDE902230191049014A000680090EC
:100F3000134B5968134801F00C02042A10D0082AF8
:100F40000ED101A8C1F38342805CC9030AD5596858
:100F5000C1F340411DF801100A4A5043B0FBF1F0C3
:100F600005B0704708494843FAE70000020304054A
:100F7000060708090A0B0C0D0E0F101001020000E5
:100F80000010024000127A0000093D002DE9F84FE0
:100F90000446002C0ED02078D94DC0075ED068687A
:100FA000C0F3810001280BD06868C0F381000228DB
:100FB00003D00CE00120BDE8F88F6868C00306D5B7
:100FC000286880034AD56068A8BB0120F3E7606801
:100FD000B0F5803F11D0A8B1B0F5A02F1BD0286884
:100FE00020F480302860286820F480202860606821
:100FF00030B3FFF717FD06461EE0286840F4803046
:101000002860F4E7286820F480302860286820F4FD
:1010100080202860EBE7286840F48020286028685A
:1010200040F480302860E2E7FFF7FCFC801B642876
:1010300002D90320BFE711E028688003F4D50DE052
:10104000FFF7F0FC064606E0FFF7ECFC801B642887
:1010500001D90320AFE728688003F5D42078DFF8B2
:10106000A48280074FF0010A4FF0000945D5686857
:1010700010F00C0F07D06868C0F38100022812D16D
:101080006868C0030FD42868800704D52069012848
:1010900001D001208FE72868616920F0F80040EA5C
:1010A000C100286029E02069B8B1C8F800A0FFF7A6
:1010B000B9FC064606E0FFF7B5FC801B022801D903
:1010C000032078E728688007F5D52868616920F053
:1010D000F80040EAC10028600FE0C8F80090FFF770
:1010E000A1FC064606E0FFF79DFC801B022801D903
:1010F000032060E728688007F5D42078000726D50C
:101100008148A16999B1C0F800A0FFF78BFC0646A1
:1011100006E0FFF787FC801B022801D903204AE77D
:10112000686A8007F5D5012000F064FE0FE0C0F882
:101130000090FFF777FC064606E0FFF773FC801B84
:10114000022801D9032036E7686A8007F5D42078A1
:10115000400773D50026E869C00008D4E86940F06C
:101160008050E861E86900F0805000900126DFF8C7
:101170009CB1DBF80000C00514D4DBF8000040F49B
:101180008070CBF80000FFF74DFC074606E0FFF744
:1011900049FCC01B642801D903200CE7DBF80000E0
:1011A000C005F4D5E068012812D0B0B105281DD0E3
:1011B000286A20F001002862286A20F004002862D2
:1011C000E06841F2883B28B3FFF72CFC07461DE09E
:1011D000286A40F001002862F2E7286A20F0010046
:1011E0002862286A20F004002862E9E7286A40F0B3
:1011F00004002862286A40F001002862E0E7FFF757
:1012000011FCC01B584501D90320D4E6286A800789
:10121000F5D50DE0FFF706FC074606E0FFF702FCF8
:10122000C01B584501D90320C5E6286A8007F5D4BC
:10123000012E03D1E86920F08050E861E069A0B395
:101240006968C1F38101022946D0022805D0C8F897
:101250006090FFF7E7FB04463AE0C8F86090FFF7BC
:10126000E1FB064606E0FFF7DDFB801B022801D903
:101270000320A0E628688001F5D4206AB0F5803FFD
:1012800005D16868A16820F4003008436860D4E99B
:1012900008010843696821F4741108436860C8F8BC
:1012A00060A0FFF7BFFB044607E026E0FFF7BAFBAC
:1012B000001B022801D903207DE628688001F5D5AE
:1012C0001BE0FFF7AFFB001B022801D9032072E6E9
:1012D00028688001F5D410E001280CD06868226AE3
:1012E00000F48031914204D1616A00F470108842A8
:1012F00003D001205FE601205DE600205BE60000F0
:10130000001002400000424280044242007000404F
:1013100010B5401EB0F1807F01D3012010BD4FF009
:10132000E02460610F21601701F00BF90020A0613B
:1013300007202061002010BD10B590F83C20012A44
:1013400022D0012280F83C20CA6800238C6822F455
:10135000407222434C6822F4806222430C6822F4DB
:10136000006222430C6922F4805222434C6922F429
:1013700000522243C96922F480420A4301684A6448
:1013800080F83C30002010BD022010BD70B590F8F0
:101390003C20012A25D0012680F83C60022280F8FA
:1013A0003D2002685468936824F070050C682C4353
:1013B00054600D4C0268A24208D0B2F1804F05D0B3
:1013C0000A4CA24202D00A4CA24204D123F080036C
:1013D0004968194391603C3046700021017000203B
:1013E00070BD022070BD0000002C014000040040D0
:1013F0000008004010B50446002C03D094F83D00CE
:1014000010B107E0012010BD002084F83C00204608
:1014100000F016F8022084F83D00211D206800F03D
:101420006FFD01203D3460726070A070E07020712B
:101430006071A071E07120722070002010BD00006A
:1014400008B500680649884208D10648816941F418
:1014500000618161806900F40060009008BD0000B7
:10146000002C01400010024070B5044694F83C0086
:10147000012817D0012584F83C50022084F83D0053
:101480002068826822F0770222F47F428260086836
:10149000502831D00DDC20284DD005DCB0B3102809
:1014A0004ED148E0022070BD302844D0402847D1BA
:1014B00037E060282BD0702806D0B0F5805F3FD091
:1014C000B0F5005F3CD10BE0CB68D1E90121206889
:1014D00000F059FD2068816841F0770181602FE0BC
:1014E000CB68D1E90121206800F04DFD20688168BA
:1014F00041F48041816023E0CA684968206800F0B7
:101500000BFE5021206800F048FD19E013E0CA6886
:101510004968206800F011FE6021206800F03DFD60
:101520000EE0CA684968206800F0F6FD4021206896
:1015300000F033FD04E022680146104600F02DFD66
:101540003C3465700020207070BD000000B585B08F
:101550000021019102910391049100680B49884296
:1015600012D10B48816941F004018161806900F06A
:10157000040000904FF480700190022002900490CB
:1015800001A90448FFF740F905B000BD002C014057
:10159000001002400008014070B504460D4694F862
:1015A0003C0001280AD0012084F83C0042B1042A02
:1015B0001AD0082A2DD00C2A53D13EE0022070BD4B
:1015C0002946206800F0F2FC2068816941F008019A
:1015D00081612068816921F004018161206881694D
:1015E0002A69114381613CE02946206800F00EFD24
:1015F0002068816941F4006181612068816921F47A
:1016000080618161206881692A6941EA02218161E2
:1016100027E02946206800F02BFD2068C16941F0D1
:101620000801C1612068C16921F00401C16120681D
:10163000C1692A691143C16113E02946206800F09D
:1016400047FD2068C16941F40061C1612068C1693A
:1016500021F48061C1612068C1692A6941EA0221DF
:10166000C161002084F83C0070BD10B50446002C18
:1016700003D094F83D0010B107E0012010BD002018
:1016800084F83C00204600F015F8022084F83D0064
:10169000211D206800F034FC01203D346072607030
:1016A000A070E07020716071A071E07120722070F4
:1016B000002010BD7047000010B50446002909D075
:1016C00004290AD008290BD094F8410001280AD037
:1016D000012010BD94F83E00F8E794F83F00F5E7CC
:1016E00094F84000F2E7022039B3042928D00829F1
:1016F00029D084F841000122206800F037FC164907
:101700002068884203D1426C42F40042426420685F
:10171000884208D0B0F1804F05D01049884202D0ED
:101720000F49884212D1816801F00701062911D0C2
:10173000016841F0010101600CE084F83E00DAE745
:1017400084F83F00D7E784F84000D4E7016841F00F
:1017500001010160002010BD002C01400004004088
:101760000008004030B504460D4600222946206896
:1017700000F0FCFB174941F2111320689A108842CF
:1017800009D1016A194206D1016A114203D1416CA3
:1017900021F4004141642068016A194206D1016ABE
:1017A000114203D1016821F00101016001203DB126
:1017B000042D08D0082D09D084F84100002030BD48
:1017C00084F83E00FAE784F83F00F7E784F8400029
:1017D000F4E70000002C014070477047F8B504465C
:1017E00022681068D168536900F00F05002D08D1F8
:1017F000860606D58E0604D52046BDE8F84000F0E2
:1018000043BD0026002D60D003F0010501F4907760
:101810002F435AD0C20705D0CA0503D5226C42F027
:1018200001022264420705D5DA0703D0226C42F098
:1018300002022264820705D5DA0703D0226C42F047
:1018400004022264020707D501F020022A4303D0D4
:10185000226C42F008022264226C002A2BD08006FF
:1018600004D5880602D5204600F00EFD20684069A8
:10187000C0F38010216C090700D408B3204600F0A3
:10188000D5FC20684169490616D5416921F040011F
:101890004161A06B60B143494163A06BFEF722FE3A
:1018A000002808D0A06B416B01B0BDE8F0400847AC
:1018B0002046FFF792FFF8BD2046FFF78EFFF8BDE8
:1018C0002046FFF78AFF2664F8BD236B012B57D112
:1018D000C30655D5CB0653D51068506800905069A3
:1018E0004FF0200340062DD5A16B0868406880B2F8
:1018F0000028E9D0A58D8542E6D9E08588692028B1
:1019000018D0D06820F48070D0602068416921F040
:10191000010141612068416921F04001416184F881
:101920003E3026632068C16821F01001C160A06BC1
:10193000FEF7B5FDA08DE18D401A81B22046FFF77C
:101940004BFFF8BDA08DE18D401A81B2E08D0028DB
:10195000F7D00029F5D0D06820F49070D0602068CE
:10196000426922F00102426184F83E302663206819
:10197000C26822F01002C2602046FFF72DFFF8BDBA
:10198000020606D50A0604D52046BDE8F84000F058
:101990006FBD4006F3D54806F1D52046BDE8F840B6
:1019A00000F05CBC5F21000870B50446002C04D038
:1019B00094F83D00002510B106E0012070BD84F8C8
:1019C0003C50204600F022F8242084F83D00206896
:1019D000C16821F40051C160204600F0B3FC2068CA
:1019E000016921F4904101612068416921F02A01D7
:1019F00041612068C16841F40051C1602564202024
:101A000084F83D0084F83E00002070BD70B586B0BB
:101A100006460024029403940494059423493068F4
:101A2000884240D12249886940F4804088618869B1
:101A300000F480400190886940F004008861886962
:101A400000F004000190481502900220039003204A
:101A50000590184D02A92846FEF7D6FE28150290DB
:101A60000394049402A92846FEF7CEFE134D1248B3
:101A700028606C60AC608020E8602C616C61202084
:101A8000A8610002E8612846FEF72CFE08B1FEF7C7
:101A900004FDB5636E62002211462520FFF72AF986
:101AA0002520FFF719F906B070BD0000003801408D
:101AB00000100240000801405800024030010020A0
:101AC00090F83E30202B01D00220704759B152B11E
:101AD00090F83C30012B08D0012380F83C300023E3
:101AE000036300F08BBC01207047022070470000A8
:101AF000052202490248FFF7E3BF00002100002051
:101B0000D400002070472DE9F84304460E461546E0
:101B10001F4694F83D00202802D00220BDE8F8833B
:101B2000C6B1BDB194F83C00012815D0012084F85D
:101B30003C004FF00009C4F84090212084F83D009B
:101B4000FEF770FF8046A584E584A068B0F5805F4D
:101B500004D005E00120E1E70220DFE7206920B1A1
:101B60003546002684F83C9013E00025FAE743460A
:101B7000002280212046009700F0A9FC08B1032034
:101B8000CCE79DB1216815F8010B4860E08C401E40
:101B9000E084E08C0028EAD1434600224021204620
:101BA000009700F094FC40B10320B7E736F8020B31
:101BB0002168C0F308004860E8E7202084F83D0071
:101BC0000020ABE77047FEE708B50948416941F0DE
:101BD00001014161406900F00100009000221146BE
:101BE0000F20FFF787F8BDE808400F20FFF774B813
:101BF0000010024070B586B000240294039404944F
:101C000005942748816941F010018161816901F0E3
:101C100010010191816941F020018161816901F028
:101C200020010191816941F004018161816901F024
:101C300004010191816941F008018161806900F02E
:101C400008000190174E4FF40055002229463046F7
:101C5000FEF7E1FE0295012503950494022105910A
:101C600002A93046FEF7D0FD0F20029003940495A0
:101C70000D4C02A92046FEF7C7FD802102910B49B9
:101C80000391049502A92046FEF7BEFD00221146ED
:101C90001720FFF72FF81720FFF71EF806B070BDCA
:101CA0000010024000100140000801400000111027
:101CB00010B50C480A4901600B4941600021816060
:101CC000C1604FF48042026141618161C161016282
:101CD000FEF7AEFE002801D0FEF7DFFB10BD0000CE
:101CE0000054004038000020A086010010B596B0D6
:101CF00000241294139414941594109411941C219C
:101D000009A8FEF7A4FA202101A8FEF7A0FA2948A5
:101D10002749016047214160846044F62061C16029
:101D2000046144618461FFF765FB08B1FEF7B5FB10
:101D30004FF48050129012A91E48FFF795FB08B18E
:101D4000FEF7ABFB1B48FFF790FC08B1FEF7A5FBC5
:101D50001094119410A91748FFF718FB08B1FEF76B
:101D60009CFB6020099042F210700A900B940C9436
:101D70000D940E940F94002209A90E48FFF70CFC55
:101D800008B1FEF78AFB019402940394049405942D
:101D90004FF400500690089401A90648FFF7CCFACA
:101DA00008B1FEF77AFB0348FFF7D0FB16B010BD71
:101DB000002C01408C00002010B50B48094901603F
:101DC0004FF41651416000218160C16001610C2215
:101DD00042618161C161FFF7E7FD002801D0FEF794
:101DE0005CFB10BD00380140D4000020FEE7FEE798
:101DF0007047000008B507494FF4FA520968B1FB73
:101E0000F2F14143009100BF0098411E0091FAD2C7
:101E100008BD0000340000207047000070B51E4C63
:101E20006089012803D0BDE87040FEF7FBBEE08961
:101E3000401CE081E089002513280CD9E58100F0E1
:101E400069FE2078A178884200D165814FF4005165
:101E50001248FEF7D8FD2078A178884200D165812C
:101E6000A0791E2800D1658100F00EFE012809D15D
:101E70002079401C20712079032803D36189012037
:101E800088436081044821300178652903D10079B5
:101E9000302800D1658170BD000000200010014095
:101EA00030B58FB0282105A8FEF7D1F91421684676
:101EB000FEF7CDF90121059108040690002407944E
:101EC000099102250C950D904FF4E0100E9005A895
:101ED000FFF75CF808B1FEF7E0FA0F2000900195DB
:101EE00002944FF480600390049402216846FEF748
:101EF00043FF002801D0FEF7D0FA0FB030BD704785
:101F0000F0B50268164C174D174E4FF08047A042AF
:101F100005D0B84203D0A84201D0B04203D122F08C
:101F200070034A681A43A04205D0B84203D0A842C1
:101F300001D0B04203D122F44073CA681A434B69FE
:101F400022F080021A4302608A68C2620A688262D2
:101F5000A04201D10969016301214161F0BD000086
:101F6000002C0140000400400008004010B501F0C2
:101F70001F0101238B40046A9C430462036A8A4068
:101F80001343036210BD10B5846824F47F4442EA11
:101F900003220A432243826010BD826822F070024D
:101FA0000A4342F0070181607047000030B5026AC1
:101FB00022F001020262036A4268846924F070041C
:101FC00024F003050C682C4323F002058B682B4397
:101FD0000D4DA84206D123F00805CB6843EA05035E
:101FE00023F0040309D122F4807222F400724D69B7
:101FF00045EA02058A6942EA05024260846149684D
:102000004163036230BD0000002C014030B5026A1C
:1020100022F010020262036A4268846924F4E044F8
:1020200024F440740D6844EA052423F020038D68ED
:1020300043EA05130D4DA84206D123F08003CD6875
:1020400043EA051323F0400309D122F4806222F40D
:1020500000624D6942EA85028D6942EA850242606A
:10206000846149688163036230BD0000002C014037
:1020700030B5026A22F480720262036A4268C4695F
:1020800024F0700424F003050C682C4323F400733F
:102090008D6843EA05230D4DA84206D123F4006361
:1020A000CD6843EA052323F4806309D122F48052EA
:1020B00022F400524D6942EA05128D6942EA051286
:1020C0004260C4614968C163036230BD002C0140B5
:1020D00030B5026A22F480520262036A4268C4691F
:1020E00024F4E04424F440740D6844EA052423F405
:1020F00000538D6843EA0533064DA84204D122F40B
:1021000080424D6942EA85124260C46149680164B7
:10211000036230BD002C014010B5036A046A24F04C
:1021200001040462846924F0F00444EA021423F0F8
:102130000A020A438461026210BD10B5036A23F0EB
:10214000100303628469036A24F4704444EA02328F
:1021500023F0A00343EA01118261016210BD10B5B2
:10216000406A0021C185C184FFF737FB10BD70B5FF
:10217000446A20684069C0F3C01094F83D100025FF
:10218000212904D118B1E584204600F074F82068B4
:102190004069C0F3801094F83E10222904D118B190
:1021A000E585204600F042F8206C40F010002064E5
:1021B0002046FFF712FB70BD10B50146486A09685A
:1021C000096889061BD40021C1850168CA6822F408
:1021D0008072CA6001684A6922F001024A6101689E
:1021E0004A6922F040024A61202180F83E10016BCA
:1021F000012904D10168CA6822F01002CA60016B8B
:10220000012902D0FFF774FC10BD818DFFF7E4FABD
:1022100010BD10B5406A016B012902D0FFF772FCB6
:1022200010BD818D4908FFF7D7FA10BD0168CA6853
:1022300022F49072CA6001684A6922F001024A6180
:10224000016B012904D10168CA6822F01002CA603A
:10225000202180F83E1000210163704710B501680D
:10226000CA6822F04002CA60202180F83D10FFF7C2
:10227000A9FC002010BD0168CA6822F0C002CA6033
:10228000202180F83D10704708B590F83E102229B3
:1022900001D0022008BD82684FF480539A4201D1D8
:1022A000016921B1816A9A421DD052B10BE0816A65
:1022B00002685268C2F308020A80816A891C81623E
:1022C00009E002697AB10268526802F07F020A707E
:1022D000816A491C8162C18D491E0904090CC185AE
:1022E00005D0002008BD026852680A70F0E7016856
:1022F000CA6822F02002CA600168CA6822F48072AB
:10230000CA6001684A6922F001024A61202180F80E
:102310003E10016B012903D0FFF7EAFB002008BD46
:10232000002101630168CA6822F01002CA600168D6
:102330000A68D20602D50A6849680091818DFFF7C4
:102340004BFAEBE770B5044620680169E26821F4B6
:10235000405111430161A168206901436069014353
:102360002068C26841F20C639A430A43C260206845
:102370004169A26921F44071114341611E492068FD
:10238000884202D1FEF7B8FD01E0FEF7A5FD00EBA3
:10239000C00101EB0010616864228900B0FBF1F319
:1023A000B3FBF2F36FF018067343B0FBF1F5B0FB2B
:1023B000F1F605EB8305322303EB0515B5FBF2F5CA
:1023C000B6FBF2F605F0F00505EB0615B0FBF1F6ED
:1023D000B0FBF1F0B0FBF2F06FF01801484306EBF0
:1023E000800003EB0010B0FBF2F0216800F00F005A
:1023F0002844886070BD00000038014037B582B0C5
:1024000004461346039AA262A38500252564222070
:1024100084F83E00A16B13488862A16B1248C86221
:10242000A16B12480863A06B45632168A06B091D6E
:10243000FEF78AF9206801684168019184F83C50F0
:10244000C16841F48071C1602068416941F00101B7
:1024500041612068416941F04001416105B00020BF
:1024600030BD0000B9210008132200086F210008C8
:1024700090F83D10212901D0022070478168B1F504
:10248000805F01D1016961B1016A4A1C0262026880
:1024900009785160C18C491E0904090CC1840AD015
:1024A00013E0016A02680988C1F308015160016AFA
:1024B000891C0162EEE70168CA6822F08002CA60E6
:1024C0000068C16841F04001C160002070472DE9FB
:1024D000F04104460E4617469846069D1DE0681CCE
:1024E0001BD02DB1FEF79EFAA0EB0800A84214D92C
:1024F0002068C16821F4D071C1602068416921F071
:1025000001014161202084F83D0084F83E00002054
:1025100084F83C000320BDE8F0812068006836EABA
:10252000000004D00020B842D9D00020F3E70120F9
:10253000F9E700000148FFF751B90000D40000207E
:10254000FEE70907090E002804DB00F1E02080F80F
:102550000014704700F00F0000F1E02080F8141D17
:102560007047000010B50A211A4800F049F91A49CD
:1025700000F03CFE00F022FD1849C0B2C8714FF0D7
:10258000FF34142812D200216F2000F053FA1348B0
:102590001C30FDF73DFE82B210490E4823461C3127
:1025A0004438FFF7B0FA0028F1D110BD01216F20A7
:1025B00000F040FA09481C30FDF72AFE82B20749B4
:1025C000044823461C314438FFF79DFA0028F1D116
:1025D00010BD00001801002000404D440000002004
:1025E00010B5124A13795178303901EB4104C4EB2C
:1025F000C11103EBC10493786421303B4B43D17884
:10260000303901EB810103EB41012144303989B2BA
:102610000A2900D90A2101EB4102C2EBC1114FF690
:10262000FF7202EA0111018010BD000021000020AC
:1026300010B50C4A13795178303901EB4104C4EBE1
:10264000C11103EBC10493786421303B4B43D17833
:10265000303901EB810103EB410121443039017034
:1026600010BD000021000020016170470420401EC1
:1026700000BF00BF00BF00BF0028F8D170472DE9A0
:10268000FF5F0446DDF838800D4616461F4620469B
:1026900000F03DF8256026816760A4F80A804FF0BD
:1026A000000ACDF808A04FF0010BCDF804B04FF0B0
:1026B0000309CDF80C90009669462846FEF7A4F869
:1026C000CDF804A0CDF808B0CDF80C90CDF800807E
:1026D00069463846FEF798F8218901222068FEF7FE
:1026E0009AF90A20FEF76AF8218900222068FEF78D
:1026F00092F90A20FEF762F8204600F03DF82046E5
:1027000000F03AF8204600F034F8BDE8FF9F10B51D
:10271000044602E00120FEF751F8217D0029F9D19D
:102720000120207510BD2DE9F04180460F4640463E
:10273000FFF7EDFF0024254600260BE0404600F0A1
:102740001BF8041945EBE0754FF00500FEF736F86D
:10275000761CB6B2BE42F1D33A4600232046294643
:10276000FDF732FDC8F80C004046BDE8F041AFF37C
:10277000008000210175704770B504460025FEF702
:1027800051F9064609E00120FEF718F8FEF74AF96C
:10279000801B962801D9002070BD61896068FEF712
:1027A0002BF90128EFD00026218901222068FEF7AD
:1027B00032F9FFF75BFF218900222068FEF72BF931
:1027C000FFF754FF6D0061896068FEF715F9012875
:1027D00000D16D1C761C76B2182EE5DB85F4000561
:1027E000218901222068FEF716F9FFF73FFF2189B2
:1027F00000222068FEF70FF9FFF738FF284670BD6A
:102800002DE9F04180460F464046FFF780FF002447
:10281000254600260BE04046FFF7AEFF041945EBC6
:10282000E0754FF00500FDF7C9FF761CB6B2BE4259
:10283000F1D33A46002320462946FDF7C5FCD8F8D7
:102840000C10401A00F0DAFBD8F8101000F0F4FA7F
:1028500002464046FFF78DFF1046BDE8F0810000BC
:1028600008B5FEF7E7F9FFF71BFBFFF7C3F9FFF722
:10287000ABF9FFF71DFAFFF79FFAFFF737FA802051
:102880000C4900900B4640220B48FFF7F8FE0B491D
:102890000948FFF7E9FE0A210748FFF744FF064809
:1028A000052207494438FFF70BF900F049F900F019
:1028B00009F8FCE7000C014018010020D7737A44A6
:1028C000210000202DE9F041564FB889012600254E
:1028D000012803D17E817D703D70BD8178890128FA
:1028E0000CD13220FDF7BEFD03E001210020FEF7F0
:1028F00033FA78890128F8D0FDF7A2FD3878B97845
:10290000884250D13D70F878787000214648FEF733
:10291000D3FE788A44490968486300244FF0FF38A1
:1029200024E04FF47A70FDF749FF388A00F07EFB0F
:102930003E4900F081FA3E4900F08CFB00F03EFB7E
:10294000F8823D82F98A572000F074F835481C302F
:10295000FDF75EFC82B23349334843461C314830B0
:10296000FFF7D1F80028F1D1641CE4B2F878844272
:10297000D7D300212C48FEF7F5FE3C463D82E58288
:102980000021572000F056F826481C30FDF740FC87
:1029900082B22449244843461C314830FFF7B3F83B
:1029A0000028F1D16681B8791E2803D1FFF7DAFD3E
:1029B000BD717E811B4C2134207848B30A20FDF77D
:1029C000FDFE2078652809D0207873280DD0207866
:1029D0006D280FD02078702811D014E0207931288C
:1029E00011D17E817D703D700DE00E48C01CFFF757
:1029F0001FFE08E00B48801CFFF71AFE03E00948A1
:102A00001230FFF7EDFD25706570A570E57025713A
:102A10007889002803D1BDE8F04100F0F3B8BDE8A3
:102A2000F0810000000000208C00002000004843DE
:102A300000007042134A107042F21070B1FBF0F3C4
:102A400000FB13134FF47A70B3FBF0F33033537081
:102A5000B1FBF0F300FB13136420B3FBF0F330334E
:102A60009370B1FBF0F300FB13130A20B3FBF0F3F8
:102A70003033D370B1FBF0F300FB13103030107122
:102A8000704700001C00002030B50021002500F038
:102A900029F808B101210DE000F02CF808B102215D
:102AA00008E000F02FF808B1032103E000F012F86D
:102AB00000B10421064B5A781A709C785C709970AA
:102AC0001AB1A24201D101B91546284630BD000015
:102AD000180000200248006840F3C000401C704706
:102AE000080801400248006840F30000401C70479D
:102AF000080801400248006840F34000401C70474D
:102B0000080801400248006840F38000401C7047FC
:102B10000808014009484178491C41708179491CE5
:102B2000817141783B2908D9002242700178491C03
:102B3000017001783B2900D9027070470000002025
:102B400070B52E4C61896520FFF774FF4FF0FF359B
:102B50002A481C30FDF75CFB284982B22B461C3109
:102B60002748FEF7D0FF0028F2D1E1787320FFF765
:102B700061FF22481C30FDF74BFB204982B22B46F7
:102B80001C311F48FEF7BFFF0028F2D1A1786D204D
:102B9000FFF750FF19481C30FDF73AFB174982B286
:102BA0002B461C311648FEF7AEFF0028F2D1618A91
:102BB0007020FFF73FFF11481C30FDF729FB0F493C
:102BC00082B22B461C310E48FEF79DFF0028F2D141
:102BD00000215720FFF72EFF08481C30FDF718FB97
:102BE000064982B22B461C310548FEF78CFF0028AF
:102BF000F2D1BDE87040FFF7B5BC00000000002036
:102C0000D400002070B5594C00262672FFF73CFF17
:102C10002072207A751E012809D0207A02281BD044
:102C2000207A032832D0207A042866D098E0012048
:102C3000A081267161896520FFF7FCFE4B481C309E
:102C4000FDF7E6FA494982B22B461C314848FEF7A7
:102C50005AFF0028F2D183E06079401C0321B0FBC9
:102C6000F1F201FB1200607161797320FFF7E2FE5F
:102C70003E481C30FDF7CCFA3C4982B22B461C3151
:102C80003B48FEF740FF0028F2D169E06079022856
:102C900005D06079012813D06079C8B11FE0608A3F
:102CA00044F62061884206D2608A00F5FA606082AC
:102CB000A08A401CA082A18A7020FFF7BBFE0EE014
:102CC000A078401CA070A1786D20FFF7B3FE06E04D
:102CD000E078401CE070E1787320FFF7ABFE2348FA
:102CE0001C30FDF795FA214982B22B461C31204851
:102CF000FEF709FF0028F2D132E06079022805D002
:102D00006079012810D06079B0B11CE0608A30B1E0
:102D1000608AA0F5FA606082A08A401EA082A18A23
:102D20007020FFF787FE0EE0A078401EA070A1780B
:102D30006D20FFF77FFE06E0E078401EE070E1784E
:102D40007320FFF777FE09481C30FDF761FA074949
:102D500082B22B461C310648FEF7D5FE0028F2D180
:102D6000BDE870400A20FDF729BD000000000020EA
:102D7000D400002090EA010F48BF81F0004100F12B
:102D80003C82421A3CBF801A89184FEAD0524FF059
:102D90007F4C1CEA410FA2EBD15318BF9CEA026F93
:102DA00000F03B804FF0004C4CEA00204CEA01213F
:102DB00021FA03FC10EB0C0C1ED202F1FF325FEA89
:102DC0001C2040EBC25038BF70471CF07F0F4FEA09
:102DD000400C18BFBCF17F4F38BF7047C3F12003D0
:102DE000994008BF20F00100BCF17F4F38BF704709
:102DF000A0F1C04000F0F5B94FEA3C00000A40EBFA
:102E0000C25028BF1CF0FF0F4FEA400CE6D018BF9D
:102E1000BCF17F4F38BF7047EAE79CEA026F05D0EC
:102E200010EA5C0F08BF00F00040704710B500F0DA
:102E300092F900BF64FBBE3E4FF47F0C1CEAD01237
:102E40001EBF1CEAD11392EA0C0F93EA0C0F00F09C
:102E5000858090EA010F48BF42F4807240F4000C74
:102E600041F400002CF07F4120F07F4000B581420A
:102E7000A2EB03020FF2081CACEB504EC0F10000B5
:102E80009EF800E04FEA4E0E00FB0EFC38BF4900F2
:102E90004FEA2C1C02F5FA020CFB0EF34FEACE1E91
:102EA0004FEA112C4FEAC1210EEB635E42EB224246
:102EB0000EFB0CFC4FEA1C5300FB03114FEA112CD4
:102EC0004FEA01310EFB0CFC4FEADC4C00FB0C110D
:102ED000C14228BF09184CEB03335DF804EB10EB3B
:102EE000410143EBC250B2F57C0F38BF704729D582
:102EF00012F0F00F1CBF00F1C04000F0004070471E
:102F0000008182838485868788898B8C8D8E8F91C2
:102F10009293959697999A9C9D9FA0A2A3A5A7A8E6
:102F2000AAACAEB0B2B3B5B7B9BCBEC0C2C5C7C912
:102F3000CCCED1D4D7D9DCDFE2E6E9ECF0F3F7FA76
:102F4000FE0000004FEA400C0CF1807CBCF17E4F8B
:102F500028BF7047B0F1C04000F043B990EA010FBC
:102F60000CEAD11348BF42F48072624538BF634512
:102F700007D213F47F0F16D080EA010000F0004062
:102F8000704710B500F0E7F8097EFC3E00F005B888
:102F900080EA010000F00040704780EA010000F084
:102FA000004000F01EB912F47F0F04BF02487047C2
:102FB00080EA010000F015B90000C07FC10DD1F119
:102FC0009E0206DB4FEA002343F0004323FA02F09F
:102FD0007047004207D54FEA4001B1F1FE4F02D2DF
:102FE0004FF00000704710B500F0B5F8499224800A
:102FF000002070476FEA20007047000010F0004189
:1030000048BF4042B0FA80F310FA03F2C3F19D03C7
:103010000BD051EAC35101EB1220530638BF704761
:1030200000F1010008BF20F001007047B0FA80F302
:1030300010FA03F2C3F19D030AD0D90501EB122067
:10304000530638BF704700F1010008BF20F00100AF
:10305000704700004FF47F0C1CEAD0121EBF1CEA20
:10306000D11392EA0C0F93EA0C0F00F0478090EA1C
:10307000010F48BF42F480724FF0004C4CEA002030
:103080004CEA012102EB0302A0FB0113A2F50002AE
:10309000002918BF43F001035B0028BF4FEA330348
:1030A00042EB22425FEA132C4CEBC2502EBFBCEB2A
:1030B000436FB2F57C0F70474FEA036CBCF1004FD1
:1030C00008BF20F00100B2F57C0F38BF70470BD568
:1030D00082F0FF0212F5803FC8BF704700F1C04088
:1030E000D8BF00F00040704700F5000C5FEA4C0CC0
:1030F00048BF7047B0F1C04000F073B890EA010FCC
:103100000CEAD11348BF42F48072624538BF634570
:1031100004D280EA010000F00040704710B500F0D2
:103120001AF800BF8900013E00F007B800F009B8A6
:103130005FEA410C5FEA1C6C08D080EA010000F0F5
:1031400050B85FEA400C5FEA1C6CF6D14FF00040CB
:10315000A0F5800070470EF1020E2EF0030E5EF80F
:10316000044B244204D44FEA4102B2F17F4F11D8FC
:103170004FEA4003B3F17F4F0CD80ED14FEAD07C19
:10318000B2F17F4F0CEB4C0C0CF1020C08BF4CEB76
:10319000D17C04E04FF0080C01E04FEAD17C0CEB4D
:1031A0004C0324FA03F404F00704B4F1040C06D22F
:1031B0000EEB840CBDE810404CF0010C6047DFE8DA
:1031C0000CF0070802024FF00040A0F5800010BD8F
:1031D0000846420018BFD2F1807288BF00F000405C
:1031E00010BDFF2141EAD050C005704790EA010FA1
:1031F00048BF81F000413FF5C4AD421A04D882F0C7
:103200000042A0EB020011444FEAD0524FF07F4C35
:103210001CEA410FA2EBD15318BF9CEA026F4AD0BF
:103220004FF0004C4CEA00204CEA012121FA03FC4B
:10323000B0EB0C0C0FD412F0FE0F36D05FEA4C004E
:103240001DD5001240EBC25038BF70471CF03F0F35
:1032500018BF70470BE0A2F101025FEA1C2040EBAF
:10326000C25038BF70471CF07F0F18BF7047C3F1C2
:103270002003994014BF401E20F0010070478008D1
:103280004FEA122308BF7047B0FA80FCA2EB0C0291
:10329000CCF1280C60FA0CF093EA122F04BF00EB7B
:1032A000C25070474FEAC3707047130A5FEADC10E0
:1032B00008BF7047F6E79CEA026F04D010EA5C0F83
:1032C00008BF0020704710B5FFF745FF40DFF63E0E
:1032D00081F0004070470000000000000000010283
:1032E00003040607080900000000010203040000AF
:1032F00010330008000000203800000028010008FA
:103300004833000838000020A007000044010008EE
:1033100000000205000100000000000000000000A5
:103320000000102705000000000000000000000061
:10333000000000000000000001000000100000007C
:08334000000000000024F4006D
:04000005080000ED02
:00000001FF
