:020000040800F2
:1000000028070020890100085B190008ED15000889
:10001000591900088F0200084F1B0008000000005B
:100020000000000000000000000000005F19000850
:10003000BB030008000000005D19000861190008FA
:10004000A3010008A3010008A3010008A301000800
:10005000A3010008A3010008A3010008A3010008F0
:10006000A3010008A3010008A3010008A3010008E0
:10007000A3010008A3010008A3010008A3010008D0
:10008000A3010008A3010008A3010008A3010008C0
:10009000A3010008A3010008A3010008A3010008B0
:1000A000A3010008A3010008A3010008C519000866
:1000B000A3010008A3010008A3010008A301000890
:1000C000A3010008A3010008A3010008A301000880
:1000D000A3010008A3010008A3010008A301000870
:1000E000A3010008A3010008A301000800F002F822
:1000F00000F03AF80AA090E8000C82448344AAF188
:100100000107DA4501D100F02FF8AFF2090EBAE885
:100110000F0013F0010F18BFFB1A43F0010318473B
:10012000A01E0000C01E0000103A24BF78C878C18D
:10013000FAD8520724BF30C830C144BF04680C60ED
:10014000704700000023002400250026103A28BF35
:1001500078C1FBD8520728BF30C148BF0B60704739
:100160001FB51FBD10B510BD00F058F81146FFF7C0
:10017000F7FF01F005FD00F076F803B4FFF7F2FF9A
:1001800003BC00F07DF8000009488047094800479B
:10019000FEE7FEE7FEE7FEE7FEE7FEE7FEE7FEE737
:1001A000FEE7FEE704480549054A064B7047000094
:1001B000C3190008ED0000082801002028070020CE
:1001C00028030020280300204FF0000200B513464A
:1001D00094469646203922BFA0E80C50A0E80C5067
:1001E000B1F12001BFF4F7AF090728BFA0E80C5018
:1001F00048BF0CC05DF804EB890028BF40F8042B11
:1002000008BF704748BF20F8022B11F0804F18BF7D
:1002100000F8012B7047704770477047754600F033
:100220002BF8AE4605006946534620F00700854688
:1002300018B020B5FFF7B6FFBDE820404FF000062C
:100240004FF000074FF000084FF0000B21F00701BE
:10025000AC46ACE8C009ACE8C009ACE8C009ACE801
:10026000C0098D46704710B50446AFF300802046A4
:10027000BDE81040FFF781BF00487047C80000206C
:1002800001491820ABBEFEE7260002007047FEE7DA
:1002900010B504460298216022716371A071282074
:1002A000A0720620E0710C202072142060720820D9
:1002B000E072322000F082F800223321204600F064
:1002C00047F800223321204600F042F8052000F0D4
:1002D00075F800223221204600F03AF8052000F09F
:1002E0006DF800222021204600F032F8052000F0B1
:1002F00065F8E1790022204600F02AF8217A0022F0
:10030000204600F025F8617A0022204600F020F80F
:10031000A17A0022204600F01BF80022012120468D
:1003200000F016F820460022BDE81040022100F03F
:100330000FB8012200F00CB870B50C46054603E07A
:100340002846641CFFF7F5FF21780029F8D170BD1D
:100350007CB506460807040EF07A01F0F00518B1E6
:1003600045F0080544F00804012A01D02AB108E04C
:1003700045F0010544F0010403E025F0010524F0F7
:10038000010445F004008DF80400012000F016F887
:100390008DF8055044F004008DF80600012000F0AF
:1003A0000DF84FF47A708DF80740009031790423EE
:1003B00001AA306800F0D4F97CBD704770B50446DE
:1003C00000F004F90546601C02D00448007804449B
:1003D00000F0FCF8401BA042FAD370BD10000020D2
:1003E0002DE9F84FDFF8B891002409F1040A0AF169
:1003F000040B23460F270BF1040EC9E00125A5408D
:100400002A40AA427DD1674ED1F804C0ACEB060861
:10041000B44532D014DCBCF1030F3AD009DCBCF196
:10042000000F2AD0BCF1010F1CD0BCF1020F31D15A
:100430001DE0BCF1110F17D0BCF1120F2AD119E049
:10044000B8F5881F19D006DCB8F5803F15D0B8F58F
:10045000801F1FD111E0B8F5001F0ED0B8F5041FA2
:1004600018D10AE0CB6815E0CB681B1D12E0CB6801
:1004700008330FE0CB680C330CE08B682BB1012BF9
:100480004FF0080303D0456104E0042302E0056156
:1004900000E00023FF2A01D8064601E000F104062F
:1004A0004FEA840501D9A5F12005D6F8008007FAA6
:1004B00005FC28EA0C0803FA05F548EA0508C6F821
:1004C00000804D68ED0062D5374DAE6946F00106FB
:1004D000AE61AD6924F0030605F001050095334DCA
:1004E00006EB050CDCF80850A607360F07FA06F8ED
:1004F00025EA0805DFF8B880404503D14FF0000831
:1005000017E044E0DFF8AC80404502D14FF001082D
:100510000FE0DFF8A480404502D14FF0020808E068
:10052000DFF89880404502D14FF0030801E04FF01A
:10053000040808FA06F848EA0508CCF808804D686F
:10054000D9F80060ED034D4601D5164300E096430F
:100550002E604D68DAF80060AD03554601D51643AC
:1005600000E096432E604D68DBF80060ED025D46CA
:1005700001D5164300E096432E604D68DEF800601A
:10058000AD02754601D5164300E096432E60641C0B
:100590000D682A46E5407FF431AFBDE8F88F0000D2
:1005A0000004014000001110001002400000014052
:1005B00000080140000C01400010014000140140FF
:1005C0000AB1016170470904FBE700000148806837
:1005D000704700001000002070B5040025D094F88A
:1005E0003D00002520B984F83C50204600F04EF92B
:1005F000242084F83D002068016821F00101016099
:100600002068016841F4004101602068016821F41C
:100610000041016000F096FA4D4A6168914201D8AC
:100620004C4900E04C49884201D2012070BD4B4941
:100630002368B0FBF1F15E6826F03F060E435E6072
:100640006368934206D94FF4967359434FF47A7313
:10065000B1FBF3F12368491C1E6A26F03F063143C3
:1006600019626168914210D84900401EB0FBF1F256
:10067000521CC2F30B02042A01D2042022E0B0FB78
:10068000F1F0401CC0F30B001CE0A268F2B301EBD8
:10069000C10303EB0116431EB3FBF6F35B1C43F4EB
:1006A00080431B0549D092B301EBC10202EB01115B
:1006B000401EB0FBF1F0401CC0F30B0040F4804042
:1006C00040F400402168CA694CF6FF739A43104316
:1006D000C861D4E9071001432068026822F0C00213
:1006E00011430160D4E9030101432068826848F2A4
:1006F000FF339A4311438160D4E90501084321681F
:10070000CA6822F0FF021043C86001E00EE016E064
:100710002068016841F0010101602564202084F80F
:100720003D00256384F83E50002070BD01EB41067A
:10073000431EB3FBF6F35B1CB3E70120C2E701EBFA
:100740004101401EB0FBF1F0401CC0F30B00B7E7C5
:10075000A086010080841E0000093D0040420F0079
:100760002DE9F84F1F4690468A460446DDF828904A
:10077000FFF72CFF054694F83D0020287FD1192370
:10078000012240492046009500F0BCFF002876D1A8
:1007900094F83C00012872D0012084F83C002068C5
:1007A0000168C90703D1016841F0010101602068B7
:1007B000016821F400610160212084F83D001020CF
:1007C00084F83E0000262664C4F824806785608D86
:1007D00020852D48E0622B464A465146204600F0CF
:1007E0001DFF90B9206841698069009036E02A4673
:1007F0004946204601F005F850B1206C042804D188
:100800002068016841F4007101600120BDE8F88FA3
:10081000606A216800780861606A401C6062618DCE
:10082000491E6185218D491E89B22185226853693F
:10083000DB435B070BD451B100781061606A401C48
:100840006062608D401E6085208D401E20852A4696
:100850004946204600F030FF0028CED1208D0028E8
:10086000C5D154F83D0B016841F4007101602020AE
:1008700004F81E09E67766770020C7E7FFE7022045
:10088000C4E70000020010000000FFFF10B586B0B2
:100890000021009101910291039100680F49884263
:1008A0001AD10F4CA06940F00800A061A069694608
:1008B00000F008000490C020009012200190032056
:1008C00003900848FFF78CFDE06940F40010E061F8
:1008D000E06900F40010049006B010BD0054004020
:1008E00000100240000C0140024881680278114467
:1008F0008160704710000020074810B5016841F082
:1009000010010160032000F075F80F2000F006F8D8
:1009100000F024F8002010BD0020024070B50D4DFD
:1009200004464FF47A712878B1FBF0F00A4909685F
:10093000B1FBF0F000F0DCFA48B9102C07D200222D
:100940002146501E00F036F800206C6070BD01207A
:1009500070BD0000100000201C0000200C4808B5ED
:10096000816941F001018161816901F0010100911A
:10097000C16941F08051C161C06900F080500090B0
:100980000448416821F0E06141F00071416008BD18
:100990000010024000000140002809DB00F01F02A7
:1009A000012191404009800000F1E020C0F80011D1
:1009B00070470000F0B40E4B1B680C46C3F30223D3
:1009C000C3F10705042D00D90425191D072901D2FB
:1009D000002300E0DB1E012606FA05F1491E214036
:1009E00099409E40761E16403143F0BC01F0B0B8ED
:1009F0000CED00E0064900F0070208684FF6FF031F
:100A0000184040EA0220034A104308607047000083
:100A10000CED00E00000FA052DE9F0470F46050057
:100A200061D0434E306800F00700B84209D2306808
:100A300020F0070038433060306800F00700B8420B
:100A400051D128683B4C810712D5400703D5606817
:100A500040F4E06060602878000703D5606840F4E7
:100A6000605060606068A96820F0F0000843606032
:100A70002878C00728D06868012810D0216802288B
:100A800010D0890700292EDA616821F003010143A3
:100A90006160FFF79BFD804641F288390DE02168D7
:100AA0008903EFE78901EDE7FFF790FDA0EB08016F
:100AB000494502D90320BDE8F0876068696800F005
:100AC0000C00B0EB810FEFD1306800F00700B842A6
:100AD0000BD9306820F0070038433060306800F0F0
:100AE0000700B84201D00120E5E72878400705D586
:100AF0006068E96820F4E0600843606028780007D7
:100B000006D56068296920F4605040EAC100606041
:100B100000F028F86168084AC1F30311515CC8402D
:100B20000649086006480068FFF7F8FE0020C2E7A3
:100B30000020024000100240A81F00081C000020F6
:100B4000140000200448054900684968044AC1F3BC
:100B50000221515CC84070471C0000200010024078
:100B6000B81F000812A185B00FC98DE80F0014A0AE
:100B7000144A006804905168134801F00C03042BD8
:100B800010D0082B0ED1C1F38343C9031DF8030015
:100B90000AD5516804AAC1F34041515C0A4A504346
:100BA000B0FBF1F005B0704708494843FAE7000090
:100BB00002030405060708090A0B0C0D0E0F10109E
:100BC000010200000010024000127A0000093D00FE
:100BD0002DE9F84F040070D02078C04DC00749D0EF
:100BE0006868C0F38100012807D06868C0F38100FD
:100BF000022809D16868C00306D52868800339D562
:100C000060680028E7D035E06068B0F5803F0BD021
:100C100010B1B0F5A02F11D0286820F480302860E2
:100C2000286820F4802002E0286840F480302860A2
:100C3000606890B1FFF7CAFC06460AE0286840F4F5
:100C400080202860F0E700BFFFF7C0FC801B64280D
:100C500073D828688003F7D50CE0FFF7B7FC064689
:100C600005E000BFFFF7B2FC801B6428F0D82868BD
:100C70008003F7D420789A4E80074FF001094FF097
:100C8000000839D5686810F00C0F07D06868C0F309
:100C90008100022809D16868C00306D4286880074B
:100CA00014D52069012808D110E02069B0B1C6F838
:100CB0000090FFF78BFC074605E00AE1FFF786FC92
:100CC000C01B0228C4D828688007F7D52868616946
:100CD00020F0F80040EAC10028600DE0C6F800806E
:100CE000FFF774FC074604E0FFF770FCC01B022806
:100CF00023D828688007F7D4207800072CD57948B6
:100D0000A169D9B1C0F80090FFF760FC074604E084
:100D1000FFF75CFCC01B02280FD8686A8007F7D574
:100D200071484FF4FA510068B0FBF1F0009000BF39
:100D30000098411E0091FAD20EE080E0C0F80080D9
:100D4000FFF744FC074604E0FFF740FCC01B022805
:100D500075D8686A8007F7D42078400760D5E869BD
:100D60000027C00008D4E86940F08050E861E869D5
:100D7000012700F0805000905C480168C90513D439
:100D80000168834641F480710160FFF71FFC8246D1
:100D900006E000BFFFF71AFCA0EB0A0064284ED85B
:100DA000DBF80000C005F5D5E06801280AD008B1DD
:100DB000052813D0286A20F001002862286A20F054
:100DC000040002E0286A40F001002862E06841F275
:100DD000883B98B1FFF7FAFB82460BE0286A40F0A7
:100DE00004002862EEE700BFFFF7F0FBA0EB0A016A
:100DF00059455AD8286A8007F6D50CE0FFF7E6FB7C
:100E0000824605E0FFF7E2FBA0EB0A0159454CD80A
:100E1000286A8007F6D41FB1E86920F08050E861A5
:100E2000E06988B36968C1F38101022944D00228CE
:100E3000C6F8608004D0FFF7C9FB044638E034E010
:100E4000FFF7C4FB074604E0FFF7C0FBC01B022806
:100E50002BD828688001F7D4206AB0F5803F05D1EF
:100E60006868A16820F4003008436860D4E908018C
:100E70000843696821F4741108436860C6F86090FB
:100E8000FFF7A4FB044606E025E000BFFFF79EFB4A
:100E9000001B022809D828688001F7D51BE000BF95
:100EA000FFF794FB001B022802D90320BDE8F88F4E
:100EB00028688001F4D40EE00128F7D06868226A1F
:100EC00000F48031914204D1616A00F470108842CC
:100ED00001D00120EAE70020E8E70000001002400E
:100EE00000004242800442421C000020007000408A
:100EF00010B5401EB0F1807F01D3012010BD4FF02E
:100F0000E02460610F21601700F022FE0020A06144
:100F100007202061002010BD7047704770B590F821
:100F20003C20012A26D0012480F83C40022280F88F
:100F30003D2003685A689D6822F070060A683243B3
:100F40005A600D4B02689A4208D0B2F1804F05D02A
:100F50000A4B9A4202D00A4B9A4204D1496825F0C2
:100F600080031943916080F83D40002180F83C10D7
:100F7000084670BD022070BD002C014000040040F6
:100F80000008004010B5040003D094F83D0010B1F3
:100F900007E0012010BD002084F83C00204600F04E
:100FA0001FF8022084F83D00211D206800F010FD8C
:100FB000012084F8460084F83E0084F83F0084F85D
:100FC000400084F8410084F8420084F8430084F82B
:100FD000440084F8450084F83D00002010BD000066
:100FE00000B585B000210091019102910391006844
:100FF000124988421FD11248816941F40061816120
:10100000816901F400610491816941F00401816109
:101010008069694600F0040004904FF480700090ED
:101020000848FFF7DDF9002211461B20FFF7C2FC3C
:101030001B20FFF7B1FC05B000BD0000002C0140F3
:10104000001002400008014070B5044690F83C00D2
:10105000012817D0012584F83C50022084F83D0077
:101060002068826822F0770222F47F42826008685A
:10107000502830D00DDC20284DD005DC98B3102846
:101080003BD148E0022070BD302844D0402834D104
:1010900039E0602828D0702806D0B0F5805F2CD0C9
:1010A000B0F5005F29D10AE0CB68D1E901212068C1
:1010B00000F0D1FC2068816841F0770109E0CB683D
:1010C000D1E90121206800F0C6FC2068816841F464
:1010D0008041816011E0CA684968206800F0CDFC59
:1010E0005021206807E016E0CA684968206800F0CF
:1010F00001FD6021206800F0B8FC84F83D5000201C
:1011000084F83C0070BDCA684968206800F0B5FCEE
:1011100040212068EFE7226801461046EBE7000017
:1011200070B50546007F012822D1254C207870B18A
:1011300001281DD10021284600F026FAA060296868
:1011400000264E626168884213D9401A19E00021D6
:10115000284600F019FA6060012020702868016AB2
:1011600021F00A0101622868016A41F0020101626E
:1011700070BD814201D8E06804E04FF6FF72511A59
:101180000844E06000F087FD0E4A0F4B00F096FD2A
:101190004FF0FF3200F0C2FE00F050FD607026708C
:1011A0002868016A21F00A0101622868016A016267
:1011B00006480068C16821F00201C16070BD0000EE
:1011C000000000209CC420B07268A13F7400002081
:1011D0002DE9F041054690F83C000C46012836D038
:1011E000012085F83C008AB3042A42D02868082AE6
:1011F00051D0D4E90023E168066A26F480560662DD
:10120000C669076A26F4407646EA03234FF6FF765E
:1012100006EA013123F4704319434FF4005627F4D2
:10122000005306EA02321A43C16102622868C169AA
:1012300021F44061C1612868C169A26841EA0221C4
:10124000C161002085F83C00BDE8F08101E002208A
:10125000FAE7D4E90012E368286800F01FFC286868
:10126000816921F00C01816128688169A2681143BC
:101270000FE0D4E90012E368286800F04DFC28680C
:10128000816921F44061816128688169A26841EA2D
:1012900002218161D5E7D4E90027267B016A21F488
:1012A00080710162C169036A21F00301394321F0B1
:1012B000F00731074FF4007647EA116123F4007319
:1012C00006EA02221A43C16102622868C16921F05C
:1012D0000C01C1612868C169A2681143B0E710B56B
:1012E000040003D094F83D0010B107E0012010BDC8
:1012F000002084F83C00204600F01EF8022084F80C
:101300003D00211D206800F063FB012084F84600A9
:1013100084F83E0084F83F0084F8400084F84100DF
:1013200084F8420084F8430084F8440084F84500BF
:1013300084F83D00002010BD7047000010B5044641
:1013400051B104290DD0082910D094F8410094F827
:101350004520012811D10EE094F83E0094F8422077
:10136000F7E794F83F0094F84320F2E794F8400040
:1013700094F84420EDE7012A01D0012010BD02209D
:1013800051B1042911D0082918D084F8410084F8FB
:1013900045000C291BD136E084F83E0084F8420059
:1013A0002068C26842F0020210E084F83F0084F82E
:1013B00043002068C26842F0040207E084F840005D
:1013C00084F844002068C26842F00802C26001222A
:1013D000206800F033FB0E492068884208D0B0F145
:1013E000804F05D00B49884202D00B49884204D176
:1013F000816801F00701062903D0016841F001016D
:101400000160002010BD2068C26842F01002DDE7D4
:10141000002C0140000400400008004070B5044664
:10142000006801694FF00005C943890715D4C168F8
:10143000C943890711D4E91E016101202077206882
:1014400080698007204602D0FFF76AFE04E000F0C2
:1014500098F8204600F096F8257720680169C9437E
:10146000490717D4C168C943490713D46FF0040171
:101470000161022020772068806910F4407F2046B7
:1014800002D0FFF74DFE04E000F07BF8204600F0AC
:1014900079F8257720680169C943090716D4C1681E
:1014A000C943090712D46FF00801016104202077B5
:1014B0002068C0698007204602D0FFF731FE04E0B3
:1014C00000F05FF8204600F05DF82577206801699C
:1014D000C943C90617D4C168C943C90613D46FF0FC
:1014E00010010161082020772068C06910F4407F56
:1014F000204602D0FFF714FE04E000F042F8204638
:1015000000F040F8257720680169C943C90708D170
:10151000C168C943C90704D1891E0161204600F092
:1015200032F820680169C943090609D4C168C94372
:10153000090605D46FF0800101612046FFF7ECFC3D
:1015400020680169C943490609D4C168C9434906ED
:1015500005D46FF040010161204600F02AF82068B0
:101560000169C94389060BD4C168C943890607D4F8
:101570006FF0200101612046BDE87040FFF7CDBC4F
:1015800070BD7047704770470246002041B1042982
:1015900009D008290AD00C2901D11068006C7047C5
:1015A0001068406B70471068806B70471068C06BA4
:1015B0007047704770B501220A4D540221462846F3
:1015C000FEF7FEFF0A21084800F0D2FA0022214669
:1015D0002846FEF7F5FF04480068C16841F00201A3
:1015E000C16070BD0008014074000020FEE7016882
:1015F0004A69D24352050FD46FF480624A610021D8
:1016000040F8301F202242738173026942F00402C5
:10161000026101730120704700207047F8B504464D
:10162000C06A1E460D461746082807D0012805D077
:1016300010F5803F02D0206B122804D12068016889
:1016400041F480710160134600224FF001112046E1
:10165000009600F057F840B120680068C00502D538
:101660004FF4007020640320F8BD2069B0F5804F6E
:101670000ED00620216800EAD51040F0F000086185
:1016800033463A460B49204600F070F878B902E03C
:1016900005F0FE0000E0E8B2216808610549334624
:1016A0003A46891F204600F061F80028DCD001206E
:1016B000F8BD00000800010070B516460D4604464E
:1016C0000DE02046FFF793FF08B1012070BD681CB4
:1016D00005D0FEF77BFF801BA84207D835B12068F4
:1016E0004069C0434007ECD4002070BD002044F89E
:1016F000300F20216173A073216941F02001216125
:101700002073E2E72DE9F0471E4690460D46044659
:10171000C1F30747DDF8209008E0701C06D0FEF703
:1017200055FFA0EB0900B0420FD876B12068012F19
:1017300018D0806925EA00000004000C14D00021B4
:101740004145EAD00020BDE8F087002044F8300F82
:1017500020216173A073216941F020012161207370
:101760000120F0E74069E5E70121E9E72DE9F047CD
:101770009A4691460E46044600254FF02008C1F3D4
:10178000074725E020684069C043400514D420681D
:10179000016841F40071016021686FF48060486164
:1017A000256384F83D8084F83E50206C40F00400AE
:1017B000206484F83C501FE0B9F1FF3F08D0FEF7E9
:1017C00005FFA0EB0A0149450CD8B9F1000F09D07B
:1017D0002068012F13D0806926EA00000004000C65
:1017E0000BD0CFE744F8305F84F80D80A5732069F3
:1017F00040F02000206125730120BDE8F08740699A
:10180000EAE770B516460D4604460DE02046FFF7A0
:10181000EEFE08B1012070BD681C05D0FEF7D6FEB3
:10182000801BA84207D835B120684069C043000634
:10183000ECD4002070BD002044F8300F20216173EB
:10184000A073216941F0200121612073E2E70000CB
:1018500070B586B000241848009401940294039453
:10186000816941F020018161816901F020010491C9
:10187000816941F004018161816901F004010491F1
:10188000816941F00801816180690C4E00F0080017
:101890004FF400750490002229463046FEF790FE72
:1018A00001200095CDE901040220039069463046ED
:1018B000FEF796FD06B070BD001002400008014022
:1018C00010B58AB000242348049405940694079424
:1018D000089409940094019402941D4903940160B2
:1018E0004721C0E901144FF6FE71C0E903144461B9
:1018F0008461FFF747FB08B172B6FEE74FF48050F2
:10190000049004A91348FFF79FFB08B172B6FEE7E5
:101910001048FFF7E4FC08B172B6FEE7089408A986
:101920000C480994FFF7FAFA08B172B6FEE70120F5
:10193000CDE9004002940022694606480394FFF76F
:1019400047FC002801D072B6FEE70AB010BD0000C7
:10195000002C014074000020FEE7FEE7704770474E
:10196000FEF7C2BF30B58FB028216846FEF72CFCC9
:1019700014210AA8FEF728FC01210804CDE9001073
:101980000024029402250491CDE907504FF4E010A1
:1019900009906846FFF71CF908B172B6FEE70F2000
:1019A000CDE90A054FF48060CDE90C4002210AA878
:1019B0000E94FFF731F8002801D072B6FEE70FB0A1
:1019C00030BD70470148FFF729BD000074000020BA
:1019D000F0B50268164B174C174D4FF080479842F0
:1019E00005D0B84203D0A04201D0A84203D122F0D2
:1019F00070064A683243984205D0B84203D0A042EC
:101A000001D0A84203D122F44074CA6822434C6931
:101A100022F08002224302608A68C2620A688262FF
:101A2000984201D10969016301214161F0BD0000C3
:101A3000002C0140000400400008004010B501F0F7
:101A40001F030121046A99408C430462016A9A4091
:101A50001143016210BD10B5846842EA032224F4E8
:101A60007F440A432243826010BD826822F07002E4
:101A70000A4342F007018160704710B5036A046AA7
:101A800024F001040462846924F0F00444EA02149E
:101A900023F00A020A438461026210BD70B5046A31
:101AA00024F0010404628469056A0F4EB04208D034
:101AB000B0F1804F05D00D4EB04202D00C4EB04276
:101AC00003D124F00304144301E044F001041A0795
:101AD00024F0F00444EA126225F00A0301F00A013E
:101AE00019438261016270BD002C01400004004076
:101AF0000008004010B5036A23F0100303628369F5
:101B0000046A23F4704343EA023224F0A00343EA58
:101B100001118261016210BD30B5046A24F0100425
:101B200004628469056A24F4407444EA022222F4BF
:101B300070444FF6FF7202EA03322243A02425F0DC
:101B4000A00304EA011119438261016230BDFEE77E
:101B50000907090E002804DB00F1E02080F80014DA
:101B6000704700F00F0000F1E02080F8141D70476E
:101B7000036800225A620068426A8A42FCD37047B6
:101B800008B5FEF7B9FEFFF7EDFEFFF761FE23484B
:101B900021494FF480420160214941600021816068
:101BA000C0E9031241618161C1610162FEF714FD68
:101BB00008B172B6FEE7FFF783FE184800215430E3
:101BC000FFF7BCFB02201549009010234E2201F1C3
:101BD0009C00FEF75DFB134C5FF00A05FFF7EAFC83
:101BE0002078B0FBF5F03030C1B20C489C30FEF7E5
:101BF000A0FB2078B0FBF5F105FB1101074830315F
:101C00009C30FEF796FBC820FEF7D8FB034806A1E0
:101C10009C30FEF791FBE1E70054004020000020DB
:101C2000A08601000100002020636D0002494FF0F2
:101C3000000000F041B900BF0000F87F4FEA1153E7
:101C4000A3F58063D3F11E03A8BFD3F1200C08DBFA
:101C50004FF0004242EAC12252EA505232FA03F0F7
:101C6000704709420BD4102BC4BF0020704703F506
:101C7000787CBCF1FF3F05D04FF0FF3070474FF04C
:101C80000000704770B500F0C3F800BF499224808F
:101C900000207047F0E7B0FA80F310FA03F10AD0A1
:101CA000C3F11D0303F580634FEA41504FEA03522D
:101CB00002EBD12170474FF000007047DFF848C1B8
:101CC00070B51CEA111E1EBF1CEA13159EEA0C0F0C
:101CD00095EA0C0F00F06F8081EA030423EA4C13AD
:101CE0004EEAD47E21EA4C1141F4801143F4801372
:101CF000AE44A1FB024CA0FB0365AEF17F7E36191A
:101D000055EB0C05A1FB034C4CF10003A0FB021C9E
:101D100016EB0C06654153F10003094218BF46F06B
:101D2000010613F4007F0BD14FEA03314FEA05306F
:101D3000340341EA155140EA16506FF003020AE0FD
:101D40004FEAC3214FEAC520F40241EA555140EA67
:101D500056506FF0020202EB2E4201EB025585EA6B
:101D6000CE710AD05FEA440C18BF24F0004450F151
:101D7000000041F1000120EAD47040F2FE7C62458F
:101D800000D270BDA84214BF4FF080444FF04044D1
:101D9000002E08BF0024BEF1806FA8BFA1F1C04192
:101DA000BDE8704080F282804FF0000001F1C04138
:101DB00001F0004170479EEA0C0F0CEA131518BFA2
:101DC00095EA0C0F06D04FF0000081EA030E0EF0EA
:101DD000004170BD00F01CF88900013E00F007B81A
:101DE00000F009B84FEA430C5FEA5C5C08D081EA76
:101DF000030100F05BB84FEA410C5FEA5C5CF6D18E
:101E00004FF00000014970470000FF070000F87F15
:101E10000EF1020E2EF0030E5EF8046B364205D46E
:101E2000012A43EB030515F5001F12D8012841EBE9
:101E3000010C1CF5001F0CD80ED14FEAD17C15F512
:101E4000001F0CEB4C0C0CF1020C08BF4CEBD37CCC
:101E500004E04FF0080C01E04FEAD37C0CEB4C059A
:101E600026FA05F606F00706B6F1040C06D20EEBCC
:101E7000860CBDE870404CF0010C6047DFE80CF0C8
:101E8000090B02024FF000414FF00000A1F50021C4
:101E900070BD19461046012851EB010418BFD4F556
:101EA000001484BF002001F0004170BD0808A0F5B7
:101EB00000114FEA310170470CF00F03092B08BFE6
:101EC000082000F059800A2B0BD0082B18BF704750
:101ED00008BF1CF0400F0AD04FF000004FF0000187
:101EE00070471CF0400F18BF4FF0004070471CF0C7
:101EF000100F08D020F0704300F07F4242EAD30177
:101F00004FEA4370704700F0604021F07F4242EAA0
:101F1000000201F07F4040EA727070474FF0FF0C02
:101F20004CF4E06C1CEA11531CBF9CEA030C944572
:101F3000C2BFDA4201EB02517047002B0DD0BCF159
:101F4000000F0FD0002A01F00041A4BF41F0E04192
:101F500041F07F614FF00000704701F000414FF009
:101F60000000704750EA01334FF09B0C18BF4CF053
:101F7000806C7FF45BAE70471CF4801F11D01CF4A2
:101F8000E02F03D06FEACC31490070474FF040504A
:101F9000EFF3008222F0704242EA000282F30088EE
:101FA00070474FF000007047000000000000000084
:101FB00001020304060708090000000001020304EF
:101FC000E01F000800000020200000002801000899
:101FD000002000082000002008070000440100083D
:101FE00000000000000000000000000000000000F1
:101FF0000100000010000000000000000024F400B8
:04000005080000ED02
:00000001FF
