:020000040800F2
:10000000E007002039020008DB1F0008C71C0008B9
:10001000D91F00082F040008EB250008000000008D
:100020000000000000000000000000003122000875
:100030007104000800000000C320000833220008FB
:10004000530200085302000853020008530200083C
:10005000530200085302000853020008530200082C
:10006000530200085302000853020008530200081C
:10007000530200085302000853020008530200080C
:100080005302000853020008530200080000000059
:100090000000000000000000000000005302000803
:1000A00053020008530200085302000853020008DC
:1000B000D922000853020008530200085302000826
:1000C00053020008530200085302000853020008BC
:1000D0005302000853020008530200080000000009
:1000E00073040008530200085302000800000000D7
:1000F00000000000000000000000000053020008A3
:1001000000000000530200085302000853020008D8
:1001100000000000000000000000000000000000DF
:10012000530200085302000853020008530200085B
:100130005302000800000000000000000000000062
:100140000000000000000000000000005302000852
:10015000530200085302000853020008530200082B
:1001600053020008530200080000000000000000D5
:10017000000000000000000000000000000000007F
:100180000000000053020008000000000000000012
:10019000530200085302000800F002F800F03CF897
:1001A0000AA090E8000C82448344AAF10107DA45D2
:1001B00001D100F031F8AFF2090EBAE80F0013F0E8
:1001C000010F18BFFB1A43F0010318478C290000E8
:1001D000AC290000103A24BF78C878C1FAD8520779
:1001E00024BF30C830C144BF04680C6070470000B1
:1001F0000023002400250026103A28BF78C1FBD830
:10020000520728BF30C148BF0B6070471FB502F0CE
:1002100095FC1FBD10B510BD00F0CFF81146FFF7DB
:10022000F5FF02F005FA00F0EDF803B4FFF7F2FF76
:1002300003BC00F0F5F80000094880470948004772
:10024000FEE7FEE7FEE7FEE7FEE7FEE7FEE7FEE786
:10025000FEE7FEE704480549054A064B70470000E3
:10026000C922000899010008E0010020E0070020F1
:10027000E0030020E003002053EA020C00F0698054
:100280002DE9F04B4FF00006002B1FBFB3FA83F5AA
:1002900003FA05F424FA05F65E4012BF1643B2FADB
:1002A00082F502FA05F4C5F120051EBF22FA05FC0D
:1002B00044EA0C04203556EA044C4FEA144418BFB3
:1002C000641C4FF000084FF00009904271EB030CE2
:1002D00039D3002919BFB1FA81F701FA07F6B0FA4C
:1002E00080F700FA07F6C7F120071EBF20FA07FCC7
:1002F00046EA0C062037B6FBF4FCA7EB0507103FD7
:1003000007F01F0BCBF120060CFA0BFB2CFA06F6BC
:1003100044BFB3460026202FA4BF5E464FF0000B1B
:100320005BEA060C08BF4FF0010B19EB0B09ABFBA6
:10033000027C48EB0608C01B06FB02CC0BFB03CC7F
:1003400071EB0C01C1E70B46024641464846BDE849
:10035000F08B13B54FF000004FF00001AFF30080B9
:10036000BDE81C4070474FF0000200B513469446AC
:100370009646203922BFA0E80C50A0E80C50B1F1FD
:100380002001BFF4F7AF090728BFA0E80C5048BF11
:100390000CC05DF804EB890028BF40F8042B08BFAF
:1003A000704748BF20F8022B11F0804F18BF00F8AB
:1003B000012B7047704770477047754600F02CF866
:1003C000AE4605006946534620F00700854618B042
:1003D00020B5FFF73FFFBDE820404FF000064FF08B
:1003E00000074FF000084FF0000B21F00701AC466A
:1003F000ACE8C009ACE8C009ACE8C009ACE8C00989
:100400008D46704710B50446AFF300802046BDE826
:100410001040FFF70ABF0000004870477C01002031
:1004200001491820ABBEFEE7260002007047FEE738
:1004300000224021014800F037B9000000040240CA
:1004400001224021014800F02FB9000000040240C1
:1004500000228021014800F027B90000000402407A
:1004600001228021014800F01FB900000004024071
:10047000704710B54FF4806000F01AF8BDE81040E6
:100480004FF4006000F014B870B5044600F012F9A3
:100490000546601C02D004480078044400F00AF9C4
:1004A000401BA042FAD370BD1C0000207047000022
:1004B000044910B50A68024202D00860FFF7F6FF4F
:1004C00010BD0000143C01402DE9F84FDFF8B8A141
:1004D0000022012403254FF00F090AF1040BAAF1B1
:1004E000040E00BF0B6804FA02F63340B34273D126
:1004F0000F7907F00307012F01D0022F16D187686B
:100500004FEA420805FA08FC27EA0C07D1F80CC0AC
:100510000CFA08FC4CEA070CC0F808C04768B7435F
:100520000E79C6F3001696403E4346600E79F643B8
:10053000B6070DD0C768560005FA06FC27EA0C0777
:10054000D1F808C00CFA06FC4CEA070CC0F80CC045
:100550000E7906F00306022E10D1D60800EB8608AD
:10056000D8F8206057074FEAD76C09FA0CF7BE435A
:100570000F6907FA0CF73743C8F8207006684FEA8E
:10058000420C05FA0CF7BE430F7907F0030707FA90
:100590000CF7374307604E6816F4403F6DD03B4E72
:1005A000376847F480473760366822F0030706F45F
:1005B00080460096364E07EB060CDCF80868970775
:1005C0003F0F09FA07F826EA0806DFF8C880404519
:1005D00003D14FF000081EE04FE0DFF8BC8040453B
:1005E00002D14FF0010816E0DFF8B080404502D19B
:1005F0004FF002080FE0DFF8A880404502D14FF02D
:10060000030808E0DFF89C80404502D14FF0040861
:1006100001E04FF0070808FA07F848EA0608CCF8A6
:100620000888DAF800605746D1F804C09E435FEAB4
:10063000CC2C00D51E433E60DBF800605F46D1F84D
:1006400004C09E435FEA8C2C00D51E433E60DEF85A
:1006500000607746D1F804C09E435FEA8C3C00D529
:100660001E433E60084F083F3E68D1F804C09E43D9
:100670005FEACC3C00D51E433E60521C102AFFF4BA
:1006800031AFBDE8F88F0000083C0140443802401B
:100690000030014000000240000402400008024017
:1006A000000C0240001002400AB181617047090449
:1006B000FBE7000001488068704700001C00002034
:1006C0000248816802781144816070471C00002054
:1006D0000B4810B5016841F400710160016841F4F4
:1006E00080610160016841F480710160032000F0C5
:1006F0006FF80F2000F006F800F024F8002010BD7D
:10070000003C024070B50D4D04464FF47A712878D4
:10071000B1FBF0F00A490968B1FBF0F000F0CFFD41
:1007200048B9102C07D200222146501E00F030F8A4
:1007300000206C6070BD012070BD00001C00002016
:10074000280000200A4808B5016841F48041016092
:10075000006800F4804000900548001F016841F0E7
:1007600080510160006800F08050009008BD0000DA
:1007700044380240002809DB00F01F0201219140AB
:100780004009800000F1E020C0F80011704700002F
:10079000F0B40E4B1B680C46C3F30223C3F10705EC
:1007A000042D00D90425191D072901D2002300E0DA
:1007B000DB1E012606FA05F1491E214099409E40A4
:1007C000761E16403143F0BC01F010BF0CED00E086
:1007D000064900F0070208684FF6FF03184040EA98
:1007E0000220034A10430860704700000CED00E04F
:1007F0000000FA052DE9F0470E46050065D0DFF848
:100800001481D8F80000F7B200F00700B04207D218
:1008100088F80070D8F8000000F00700B04254D10A
:1008200028683D4C810712D5400703D5206840F465
:10083000E05020602878000703D5206840F460402D
:1008400020602068A96820F0F00008432060287824
:10085000C0072DD0304968680839012812D0022815
:1008600013D0032811D00968890700292DDA2168DF
:1008700021F0030101432160FFF71CFF814641F293
:10088000883A0EE009688903EFE709688901ECE717
:10089000FFF710FFA0EB0901514502D90320BDE885
:1008A000F0872068696800F00C00B0EB810FEFD191
:1008B000D8F80010404601F00701B14207D907708F
:1008C000006800F00700B04201D00120E7E7287877
:1008D000400705D52068E96820F4E050084320600F
:1008E0002878000706D52068296920F4604040EA8E
:1008F000C100206000F018F82168084AC1F3031114
:10090000515CC8400649086006480068FFF7FAFED7
:100910000020C4E7003C024008380240462B000893
:100920002800002020000020154810B5006810F0B5
:100930000C02144813D01449042A0FD0082A0ED1EF
:100940000F4C241F2268236802F03F025B0207D588
:100950002068C0F38810A0FB010106E0084610BD26
:100960002168C1F38811A1FB00010023FFF784FC7B
:100970002168C1F30141491C4900B0FBF1F010BDF1
:10098000083802400024F40040787D012DE9F84F3A
:1009900004006ED02078DFF84C93C007A9F104055D
:1009A0004AD009F104000168C1F38101012908D08E
:1009B0000068C0F3810002280AD1D9F80000400283
:1009C00006D52868800337D560680028E1D033E079
:1009D0006068B0F5803F10D0B0F5A02F286810D027
:1009E00020F480302860286820F480202860606827
:1009F000A8B1FFF75FFE06460DE0286840F480309E
:100A0000F4E740F480202860F7E700BFFFF752FECC
:100A1000801B642873D828688003F7D50CE0FFF7A3
:100A200049FE064605E000BFFFF744FE801B642830
:100A3000F0D828688003F7D42078DFF8AC828007EC
:100A40004FF0000A3ED5A748001D016811F00C0FB9
:100A500008D00068C0F3810002280BD1D9F800004B
:100A6000400207D42868800716D5E068012800D125
:100A700012E033E1E068B8B10120C8F80000FFF7E8
:100A800019FE064605E000BFFFF714FE801B022892
:100A9000C0D828688007F7D52868216920F0F800B9
:100AA00040EAC10028600DE0C8F800A0FFF702FE90
:100AB000064604E0FFF7FEFD801B02281FD82868C9
:100AC0008007F7D42078000722D5864F87486169D0
:100AD000703771B101210160FFF7ECFD064604E0BB
:100AE000FFF7E8FD801B022809D838688007F7D592
:100AF0000EE0C0F800A0FFF7DDFD064605E082E04D
:100B0000FFF7D8FD801B02287DD838688007F7D40E
:100B10002078400768D5DFF8CCB100270BF13C0BFB
:100B2000DBF80000C0000BD4DBF8001041F080516E
:100B3000CBF80010DBF80000012700F08050009097
:100B40006B4E3068C00510D4306840F4807030605F
:100B5000FFF7B0FD009005E0FFF7ACFD0099401AEB
:100B6000022850D83068C005F6D55E4EA0686C36B5
:100B700001280FD00528306810D020F00100306027
:100B8000306820F004003060A068B8B1FFF792FD33
:100B900000900FE0306840F00100F4E740F00400FE
:100BA0003060F7E7FFF786FD0099411A41F288307F
:100BB000814266D830688007F4D50EE0FFF77AFDF1
:100BC000009007E0FFF776FD0099411A41F2883066
:100BD000814256D830688007F4D42FB1DBF800107A
:100BE00021F08051CBF80010A069C8B33D49091D20
:100BF0000968C1F3810102294AD00228504607D072
:100C0000C8F8600000E03CE0FFF754FD04463BE01C
:100C10004746C8F86000FFF74DFD064605E000BFF7
:100C2000FFF748FD801B02282BD828688001F7D4E5
:100C3000D4E907010843A16A2E4A490802EB0141A1
:100C4000626A41EA8211084394F82C1040EA01617B
:100C5000C9F8001001203866FFF72CFD044606E0B5
:100C60003EE000BFFFF726FD001B022809D82868D8
:100C70008001F7D534E000BFFFF71CFD001B022800
:100C800002D90320BDE8F88F28688001F4D427E05A
:100C90000128F7D0D9F80000E26900F48001914200
:100CA0001CD1226A00F03F01914217D147F6C07172
:100CB000626A0140B1EB821F10D1A26A4FF0FF338C
:100CC00000F4403103EB5202B1EB024F06D194F82D
:100CD0002C1000F07060B0EB016F01D00120D1E763
:100CE0000020CFE70438024000004742800E474210
:100CF000007000400000FFFF70B5040009D0606A7A
:100D0000002540B125616561A56294F8510040B1AC
:100D10000CE0012070BD6068B0F5827FF4D0E56121
:100D2000F2E784F85050204600F044F8022084F89E
:100D300051002068016821F040010160A0882189EC
:100D400000F4827001F404410843A18901F40061B8
:100D50000843217C01F002010843217D01F00101DB
:100D60000843218B01F400710843217F01F0380111
:100D7000084394F8201001F080010843218D01F40C
:100D80000051084321680860A069042101EA10406D
:100D900094F8241001F0100108432168486020688D
:100DA000C16921F40061C1616565012084F85100C9
:100DB000002070BD10B586B0044614216846FFF7C8
:100DC000D2FA13492068884220D1124800210268D3
:100DD00042F480520260006800F4805005900D4893
:100DE0001438026842F002020260006800F002005B
:100DF0000590382000900220CDE9010103200390E6
:100E00000520049069460448FFF75EFB06B010BD5C
:100E10000030014044380240000402402DE9F84F00
:100E2000044640680025984616460F464FF0040BCE
:100E3000B0F5827F01D1A06888B194F850000128F4
:100E400018D0012084F85000FFF734FC814694F854
:100E500051004FF0000A01280ED0022582E084F8EC
:100E600051B013460A462046CDF8008000F036F90E
:100E7000BDE8F88F0220FBE7002F72D0002E70D063
:100E800084F851B0C4F854A0A763A687E687C4F8D5
:100E900030A0A4F834A0A4F836A0C4F840A0C4F848
:100EA00044A0A068B0F5004F09D12068016821F086
:100EB000400101602068016821F4804101602068E0
:100EC0000168490603D4016841F040010160E0680F
:100ED000D8B139E020688168C90709D0007BA16BCF
:100EE0000870A06B401CA063E08F401EE0870CE000
:100EF000FFF7E0FBA0EB0901414503D3B8F1FF3F49
:100F000003D036E0B8F1000F33D0E08F0028E1D1F4
:100F10001DE020688168C90709D0C068A16B0880FE
:100F2000A06B801CA063E08F401EE0870CE0FFF701
:100F3000C1FBA0EB0901414503D3B8F1FF3F03D04A
:100F400017E0B8F1000F14D0E08F0028E1D14A4635
:100F50004146204601F0B6F808B120206065606D7A
:100F600000B10125012084F8510084F850A02846E2
:100F70007EE70325F6E72DE9F84F044690F8500088
:100F800000271D461646894601280DD04FF0010B5B
:100F900084F850B0FFF78EFB804694F85100BA46B3
:100FA000012804D0022793E00220BDE8F88FB9F1B0
:100FB000000F73D0002E71D0032084F85100C4F8C4
:100FC00054A0C4F83090A686E686C4F838A0A4F8E9
:100FD0003CA0A4F83EA0C4F844A0C4F840A0A06877
:100FE000B0F5004F09D12068016821F0400101608F
:100FF0002068016841F48041016020680168490669
:1010000003D4016841F040010160E068B0F5006F71
:10101000606803D030B3012E24D041E008B1012E26
:101020001CD1206B21680088C86006E020688168B8
:10103000890709D5216B0988C160206B801C20635A
:10104000E08E401EE08609E0FFF734FBA0EB0800CD
:10105000A84202D3681C01D031E07DB3E08E0028A5
:10106000E4D120E0206B21680078087306E0206856
:101070008168890709D5216B09780173206B401CB1
:101080002063E08E401EE0860AE0FFF713FBA0EB32
:101090000800A84203D3681C02D010E017E06DB12D
:1010A000E08E0028E3D142462946204601F038F878
:1010B00008B120206065A06818B106E0FFE70327AB
:1010C00006E02068C16880680090606D00B101276B
:1010D00084F851B084F850A0384666E72DE9F84FFF
:1010E000044690F8500000270A9E1D4692468B4603
:1010F0004FF0010901280ED0012084F85000FFF7BD
:10110000D9FA804694F85100616801280CD0B1F5F5
:10111000827F07D102E00220BDE8F88FA16809B9FB
:10112000042801D00227C2E0BBF1000F27D0BAF19A
:10113000000F24D01DB394F85100042802D00520DC
:1011400084F8510000206065C4F838A0E587A587C1
:10115000C4F830B0E586A586206460642068016824
:10116000490603D4016841F040010160E068B0F530
:10117000006F606805D0E8B3012D46D07FE00127FD
:1011800095E008B1012D39D1206B21680088C86035
:10119000206B801C2063E08E401EE0862EE02068DD
:1011A000816889070FD5E18E69B1B9F1010F0AD1C4
:1011B000216B0988C160206B801C2063E08E401E7B
:1011C000E0864FF0000920688168C9070CD0E18FE4
:1011D00051B1C068A16B0880A06B801CA063E08F38
:1011E000401EE0874FF00109FFF764FAA0EB08000A
:1011F000B04200E009E001D3701C50D1E08E00281D
:10120000CDD1E08F0028CAD13FE0206B2168007863
:101210000873206B401C2063E08E401EE0862EE0A9
:101220002068816889070FD5E18E69B1B9F1010F96
:101230000AD1216B09780173206B401C2063E08E7A
:10124000401EE0864FF0000920688168C9070CD075
:10125000E18F51B1C068A16B0870A06B401CA06306
:10126000E08F401EE0874FF00109FFF723FAA0EB63
:101270000800B04202D3701C01D010E07EB1E08EB5
:101280000028CDD1E08F0028CAD142463146204601
:1012900000F046FF28B101272020606507E0032702
:1012A00005E0A06818B92068C16880680090012036
:1012B00084F85100002084F8500038462CE710B51F
:1012C000401EB0F1807F01D3012010BD4FF0E0241B
:1012D00060610F21601701F089F90020A0610720EB
:1012E0002061002010BD7047704710B590F83C2079
:1012F000012A22D0012280F83C20CA688C6822F49E
:10130000407222434C6822F4806222430C6822F42B
:10131000006222430C6922F4805222434C6922F479
:1013200000522243C969002322F480420A43016823
:101330004A6480F83C30002010BD022010BD00003F
:1013400070B590F83C20012A2CD0012480F83C4054
:10135000022280F83D2003685A689D6822F07006DA
:101360000A6832435A60104B02689A420ED0B2F1BA
:10137000804F0BD00D4B9A4208D00D4B9A4205D0AE
:101380000C4B9A4202D00C4B9A4204D1496825F08A
:1013900080031943916080F83D40002180F83C10A3
:1013A000084670BD022070BD0000014000040040EE
:1013B00000080040000C00400040014010B504004F
:1013C00003D094F83D0010B107E0012010BD0020CB
:1013D00084F83C00204600F01FF8022084F83D000D
:1013E000211D206800F07EFF012084F8460084F86B
:1013F0003E0084F83F0084F8400084F8410084F8FF
:10140000420084F8430084F8440084F8450084F8DE
:101410003D00002010BD000010B586B00446142128
:101420006846FEF7A0FF234822680021824208D1C7
:101430002148016841F001010160006800F00100ED
:101440000EE01D48001FB2F1804F0CD01B498A42AC
:1014500007D1016841F002010160006800F002005C
:10146000059006B010BD026842F0010202600068FB
:1014700000F00100059010481438026842F00102A3
:1014800002600068022200F0010005900120009037
:10149000CDE90121CDE9031069460948FFF714F8A9
:1014A000002211461C20FFF773F91C20FFF762F998
:1014B000D7E700000000014044380240000400402B
:1014C0000000024070B5044690F83C000025012859
:1014D00017D0012684F83C60022084F83D00206883
:1014E000826822F0770222F47F42826008685028E6
:1014F00038D00DDC20284FD005DC90B3102811D156
:101500004AE0022070BD302846D040280AD13BE096
:1015100060282FD070280DD0B0F5805F03D0B0F5D3
:10152000005F12D0012584F83D60002084F83C0063
:10153000284670BDCB68D1E90121206800F02BFF5F
:101540002068816841F0770109E0CB68D1E9012189
:10155000206800F020FF2068816841F480418160AC
:10156000E1E719E0CA684968206800F0C9FF502126
:10157000206806E0CA684968206801F009F860211F
:10158000206800F012FFCEE7CA684968206800F0C2
:10159000B7FF40212068F4E7226801461046F0E7D3
:1015A00070B50546007F012822D1264C207870B105
:1015B00001281DD10021284600F06FFBA06029689A
:1015C00000264E626168884213D9401A17E0002154
:1015D000284600F062FB6060012020702868016AE4
:1015E00021F00A0101622868016A41F002010162EA
:1015F00070BD814201D8E06802E0C9430844E06060
:1016000001F08BF99FED101B53EC112B01F098F9B1
:101610009FED0F1B53EC112B01F092F901F050F9E3
:10162000607026702868016A21F00A01016228684A
:10163000016A016208480068C16821F00201C160C6
:1016400070BD0000000000209CC420B07268A13F63
:10165000000000000000E03FCC0000202DE9F04138
:10166000054690F83C0000260C46012810D00120C9
:1016700085F83C0072B1042A1CD0082A2CD00C2A10
:1016800050D00126002085F83C003046BDE8F081AE
:101690000220FBE7D4E90012E368286800F042FF6B
:1016A0002868816921F00C01816128688169A2683C
:1016B00011430FE0D4E90012E368286800F07AFFD4
:1016C0002868816921F44061816128688169A26884
:1016D00041EA02218161D5E72868D4E9002C277B03
:1016E000016A21F480710162C169036A21F003017A
:1016F00041EA0C0121F0F00C39074FF420674CEA65
:10170000116123F4206307EA02221A43C1610262D5
:101710002868C16921F00C01C1612868C169A2680B
:10172000114328E02868D4E90027E168036A23F41C
:1017300080530362D0F81CC0036A2CF4407C4CEA4E
:1017400007274FF6FF7C27F470470CEA0131394335
:101750004FF4204723F4204307EA02321A43C161C1
:1017600002622868C16921F44061C1612868C169C9
:10177000A26841EA0221C16184E710B5040003D0E8
:1017800094F83D0010B107E0012010BD002084F85E
:101790003C00204600F01EF8022084F83D00211D88
:1017A000206800F09FFD012084F8460084F83E0088
:1017B00084F83F0084F8400084F8410084F8420037
:1017C00084F8430084F8440084F8450084F83D0020
:1017D000002010BD7047000030B50446002551B10F
:1017E00004290DD0082910D094F8412094F8450020
:1017F000012A11D10EE094F83E2094F84200F7E758
:1018000094F83F2094F84300F2E794F8402094F8CD
:101810004400EDE7012801D0012030BD022059B17C
:10182000042912D0082919D084F8410084F8450011
:101830000C293ED001253AE084F83E0084F84200AD
:101840002068C26842F0020210E084F83F0084F889
:1018500043002068C26842F0040207E084F84000B8
:1018600084F844002068C26842F00802C260012285
:10187000206800F083FD1149206888420ED0B0F145
:10188000804F0BD00E49884208D00E49884205D0BF
:101890000D49884202D00D49884204D1816801F087
:1018A0000701062903D0016841F0010101602846C3
:1018B00030BD2068C26842F01002D7E70000014046
:1018C0000004004000080040000C004000400140BF
:1018D00070B50446006801694FF00005C9438907E7
:1018E00015D4C168C943890711D4E91E01610120DB
:1018F0002077206880698007204602D0FFF750FEDD
:1019000004E000F0DBF8204600F06DF92577206850
:101910000169C943490717D4C168C943490713D4AA
:101920006FF004010161022020772068806910F4C3
:10193000407F204602D0FFF733FE04E000F0BEF8FF
:10194000204600F050F9257720680169C94309074E
:1019500016D4C168C943090712D46FF008010161A8
:10196000042020772068C0698007204602D0FFF756
:1019700017FE04E000F0A2F8204600F034F92577C5
:1019800020680169C943C90617D4C168C943C9069B
:1019900013D46FF010010161082020772068C0691E
:1019A00010F4407F204602D0FFF7FAFD04E000F07B
:1019B00085F8204600F017F9257720680169C943AA
:1019C000C90708D1C168C943C90704D1891E01618B
:1019D000204600F061F920680169C943090609D46D
:1019E000C168C943090605D46FF080010161204632
:1019F000FFF779FC20680169C943490609D4C16829
:101A0000C943490605D46FF040010161204600F04A
:101A100059F920680169C94389060BD4C168C943D3
:101A2000890607D46FF0200101612046BDE87040AF
:101A3000FFF75ABC70BD000030B587B004461421D2
:101A40006846FEF790FC2468174D002117480222D3
:101A50000123AC4211D1046844F001040460006821
:101A600000F0010005904FF440700090CDE9012195
:101A7000CDE9031369460E4811E00E4DAC4210D17A
:101A8000046844F0020404600068009300F002005F
:101A90000590CDE90121CDE9031269460648FEF71C
:101AA00013FD07B030BD0000000001403038024097
:101AB000000002400004004000040240704770B57E
:101AC000044690F83C0000260D4601280FD0012066
:101AD00084F83C006AB1042A1DD0082A2FD00C2AB1
:101AE0003FD00126002084F83C00304670BD022023
:101AF00070BD206800F062FC2068816941F0080137
:101B000081612068816921F0040181612068816917
:101B10002A69114311E0206800F078FC206881698F
:101B200041F4006181612068816921F480618161F3
:101B3000206881692A6941EA02218161D2E720682F
:101B400000F090FC2068C16941F00801C161206883
:101B5000C16921F00401C1612068C1692A6911438A
:101B600011E0206800F0AAFC2068C16941F400611E
:101B7000C1612068C16921F48061C1612068C169C7
:101B80002A6941EA0221C161ACE710B5040003D023
:101B900094F83D0010B107E0012010BD002084F84A
:101BA0003C00204600F01EF8022084F83D00211D74
:101BB000206800F097FB012084F8460084F83E007E
:101BC00084F83F0084F8400084F8410084F8420023
:101BD00084F8430084F8440084F8450084F83D000C
:101BE000002010BD7047704710B50446022249B16D
:101BF00004290ED0082913D094F84100012816D0EA
:101C0000012010BD94F83E000128F9D184F83E204F
:101C10000FE094F83F000128F2D184F83F2008E05B
:101C200094F840000128EBD184F8402001E084F8CA
:101C300041200122206800F0A1FB1249206888425F
:101C400003D1426C42F400424264206888420ED0C4
:101C5000B0F1804F0BD00C49884208D00B49884224
:101C600005D00B49884202D00A49884204D18168D4
:101C700001F00701062903D0016841F0010101606C
:101C8000002010BD0000014000040040000800409A
:101C9000000C00400040014070470246002041B166
:101CA000042909D008290AD00C2901D11068006C38
:101CB00070471068406B70471068806B7047106801
:101CC000C06B70477047FEE7F0B587B014216846D7
:101CD000FEF749FB2B480024016841F080010160B8
:101CE000016801F080010591016841F00101016086
:101CF000016801F001010591016841F002010160F4
:101D00000068214E00F0020005900022F2213046CA
:101D1000FEF7CAFC1D4F0022C0213846FEF7C4FC66
:101D200002200125CDE90005CDE902406946304693
:101D3000FEF7CAFBF0200090CDE901546946304619
:101D40000394FEF7C1FB4FF4406000904FF48810FD
:101D5000CDE9010569463046FEF7B6FBC02000908C
:101D6000CDE90154694638460394FEF7ADFB0022E5
:101D700011462820FEF70CFD2820FEF7FBFC07B0DB
:101D8000F0BD000030380240000002400004024074
:101D90000E4810B50C4901604FF48271416000217A
:101DA0008160C1604FF400720161C0E90512C16138
:101DB0000162416281620A21C162FEF79DFF002833
:101DC00001D072B6FEE710BD003001402C000020AB
:101DD00010B596B000240F9410941194129413949B
:101DE0001C2168461494FEF7BEFA202107A8FEF7CE
:101DF000BAFA2D482B4901606321C0E901144FF460
:101E0000FA61C0E9031444618461FFF7D7FA08B1AD
:101E100072B6FEE74FF480500F900FA92248FFF7EB
:101E200051FB08B172B6FEE71F48FFF7AEFE08B1DE
:101E300072B6FEE7139413A91B481494FFF780FAB7
:101E400008B172B6FEE7602000904FF44870CDE90B
:101E500001040394049405940022694612480694F0
:101E6000FFF72DFE08B172B6FEE7042269460E4860
:101E7000FFF725FE08B172B6FEE7079408940994AF
:101E80004FF400500A94CDE90B4007A906480E9480
:101E9000FFF72BFA08B172B6FEE70348FFF7CCFD57
:101EA00016B010BD000001408400002010B58AB0BB
:101EB00000242148049405940694079408940994F6
:101EC0000094019402944FF08041039401606321D7
:101ED000C0E90114611EC0E903148461FFF76EFAC2
:101EE00008B172B6FEE74FF48050049004A912487E
:101EF000FFF7E8FA08B172B6FEE70F48FFF73DFCBE
:101F000008B172B6FEE7089408A90B480994FFF7D8
:101F100017FA08B172B6FEE70120CDE9004002943D
:101F20000022694604480394FFF798FB002801D07B
:101F300072B6FEE70AB010BDCC00002010B58EB01E
:101F400000240794089409940A940B941C21684671
:101F50000C94FEF708FA1F481D4901606321C0E98F
:101F6000011444F62061C0E903148461FFF726FAE6
:101F700008B172B6FEE74FF48050079007A91548E4
:101F8000FFF7A0FA08B172B6FEE71248FFF7FDFDB1
:101F900008B172B6FEE70B940BA90E480C94FFF73C
:101FA000CFF908B172B6FEE7602000904FF47A7066
:101FB000CDE901040822694606480494FFF77FFD35
:101FC00008B172B6FEE70348FFF736FD0EB010BD4C
:101FD0000004004014010020FEE7FEE710B5FEF704
:101FE00027FA002000F0C8FB0021084600F092FB11
:101FF0000021012000F08EFB0021022000F08AFB6E
:102000000321084600F086FB0021042000F082FB3B
:102010000021052000F07EFB0E21062000F07AFB57
:10202000BDE81040FEF70CBA38B5044600208DF824
:102030000000FEF70DFA61208DF8000064230122F4
:1020400069460A48FEF797FF4FF47A73202221462B
:102050000648FEF7E3FEFEF703FA0120FEF714FA46
:10206000E2208DF8000000F01DFC38BD2C0000209F
:1020700070B50D460446FEF7DBF9072000F07CFB47
:102080002946052000F046FB022000F029FB40F025
:102090000201022000F03EFB052221460B2000F049
:1020A0004FFB2021122000F035FB002000F018FB30
:1020B00040F00301002000F02DFBBDE87040FEF76A
:1020C000BFB97047F8B5044640684FF48273984230
:1020D00021D1A0684FF48065B0F5004F01D0A8422F
:1020E0000AD12068066826F04006066060689842BB
:1020F00011D1A068A8420ED000920B460022802188
:10210000204600F039F8002804D0606D40F020002F
:1021100060650320F8BD00920B4600220121EFE725
:1021200038B504461248134B0068B0FBF3F04FF487
:102130007A73584300906068B0F5827F0DD10B46EA
:10214000009200228021204600F016F870B1606DE8
:1021500040F020006065032038BD009830B1401E7B
:10216000009020688068C0430006F6D5002038BD86
:102170002800002000366E012DE9F8431E469146E6
:1021800088460446089DFEF795FA401B351AFEF76F
:1021900091FA074625480068C0F3CB30684338E021
:1021A000701C37D0FEF786FAC01BA84203D215B1C7
:1021B000009860B32CE02068416821F0E0014160A4
:1021C0006068B0F5827F0BD1A068B0F5004F02D0F7
:1021D000B0F5806F04D12068016821F040010160F2
:1021E000A06AB0F5005F09D12068016821F40051B0
:1021F00001602068016841F400510160012084F809
:102200005100002084F850000320BDE8F883002529
:10221000401E00902068816838EA010004D0002147
:102220004945BDD10020F0E70121F9E72800002051
:102230007047FEF745BA000030B593B030216846CC
:10224000FEF791F814210CA8FEF78DF81C48002425
:10225000016841F080510160006800F080501190E9
:102260001848016841F4404101600068022500F40B
:102270004040119001200390102004900095069595
:102280000820CDE907406420CDE9090504200B9022
:102290006846FEF77BFB08B172B6FEE70F20CDE97A
:1022A0000C054FF48050CDE90E4003210CA810948A
:1022B000FEF7A0FA002801D072B6FEE713B030BDD9
:1022C00040380240007000400248016841F470014B
:1022D0000160704788ED00E00148FFF7F9BA00009F
:1022E000CC000020F0B502681D4B1E4C9F031E4D14
:1022F0001E4E984207D0B84205D0A04203D0A84253
:1023000001D0B04204D122F0700C4A6842EA0C02BB
:10231000984210D0B8420ED0A0420CD0A8420AD0A9
:10232000B04208D0124CA04205D0124CA04202D0BC
:10233000114CA04203D122F44074CA6822434C6974
:1023400022F08002224302608A68C2620A688262C6
:10235000984201D10969016301214161F0BD00008A
:10236000000001400004004000080040000C004054
:1023700000400140004401400048014010B501F018
:102380001F030121046A99408C430462016A9A4048
:102390001143016210BD10B5846842EA032224F49F
:1023A0007F440A432243826010BD826822F070029B
:1023B0000A4342F0070181607047000030B5026AAD
:1023C00022F001020262026A4368846924F0730504
:1023D0000C682C4322F002058A682A430A4DA84261
:1023E0000BD122F00805CA6823F440732A434D69D3
:1023F00022F004021D438B692B43436084614968CA
:102400004163026230BD00000000014030B5026A45
:1024100022F010020262026A436884690D6824F4A3
:10242000E64444EA05248D6822F0200242EA0512BF
:102430000B4DA8420ED1CD6822F0800242EA05126F
:102440004D6923F4406343EA85038D6922F040021D
:1024500043EA85034360846149688163026230BD59
:102460000000014030B5026A22F480720262036A01
:102470004268C46923F4007324F073050C682C438C
:102480008D6843EA05230C4DA8420ED1CD6823F494
:10249000006343EA05234D6922F4405242EA0512E3
:1024A0008D6923F4806342EA05124260C461496881
:1024B000C163036230BD00000000014030B5026A14
:1024C00022F480520262046A4268C3690D6823F4F0
:1024D000E64343EA05238D6824F4005444EA0534B6
:1024E000064DA84204D14D6922F4804242EA851289
:1024F0004260C36149680164046230BD000001406C
:1025000010B5036A046A24F001040462846924F0AB
:10251000F00444EA021423F00A020A4384610262CE
:1025200010BD000070B5046A24F0010404628469DF
:10253000056A124EB0420ED0B0F1804F0BD0104E53
:10254000B04208D00F4EB04205D00F4EB04202D07C
:102550000E4EB04203D124F00304144301E044F0D2
:1025600001041A0724F0F00444EA126225F00A0379
:1025700001F00A0119438261016270BD000001404F
:102580000004004000080040000C004000400140F2
:1025900010B5036A23F0100303628369046A23F40D
:1025A000704343EA023224F0A00343EA011182613E
:1025B000016210BD30B5046A24F01004046284691D
:1025C000056A24F4407444EA022222F470444FF66F
:1025D000FF7202EA03322243A02425F0A00304EA9A
:1025E000011119438261016230BDFEE70907090E3E
:1025F000002804DB00F1E02080F80014704700F0B0
:102600000F0000F1E02080F8141D704710B504465B
:10261000072000F065F8410608D510EA440F05D000
:102620004021072000F076F8012010BD002010BDE9
:10263000FEF74EF8FFF700FEFFF746FBFFF7C8FB7B
:10264000FFF734FCFFF7A4FBFFF778FCFFF7C6FCAD
:102650000A212048FFF70CFD00211F48FFF7BCF8B6
:102660001D4800214838FFF7BFFA1B4804214838AD
:10267000FFF7BAFA18494FF4FA7048390A685063FC
:1026800009688863154C012210212046FEF70CF8DA
:10269000002220212046FEF707F801224021204693
:1026A000FEF702F8002280212046FDF7FDFF094CCD
:1026B000241F0120FFF7AAFF012806D12068401C33
:1026C000206005489030FFF7AFFC5020FDF7DCFE9E
:1026D000EFE7000014000020CC00002000000240C2
:1026E00001B582B000208DF80000FDF7B1FE642333
:1026F000012202A90648FEF73EFC64230122694636
:102700000348FEF78BFBFDF7ABFE9DF800000EBD06
:102710002C00002008B540F020008DF800008DF856
:102720000110FDF795FE4FF47A73022269460348C3
:10273000FEF721FCFDF794FE08BD00002C000020F0
:1027400038B540F0200014460D468DF80000FDF726
:102750007FFE6423012269460648FEF70CFCA2B204
:102760004FF47A7329460348FEF705FCFDF778FE1F
:1027700038BD00002C00002000B587B007287FD0AE
:1027800017287CD008210020FFF7C4FF3F2101203B
:10279000FFF7C0FF03210220FFF7BCFF032108461B
:1027A000FFF7B8FF03210420FFF7B4FF0221052043
:1027B000FFF7B0FF0E210620FFF7ACFF0021072036
:1027C000FFF7A8FF00210820FFF7A4FF0021092040
:1027D000FFF7A0FF2FA00522D0E90010CDE90010DF
:1027E00069460A20FFF7ACFF2CA00522D0E90010B3
:1027F000CDE9021002A90B20FFF7A2FFC3210C2094
:10280000FFF788FFC4210D20FFF784FFC5210E20AC
:10281000FFF780FFC6210F20FFF77CFF1DA00522D8
:10282000D0E90010CDE9041004A91020FFF788FFBB
:1028300000211120FFF76EFF00211220FFF76AFF31
:1028400000211320FFF766FF00211420FFF762FF2D
:1028500000211520FFF75EFF00211620FFF75AFF29
:1028600011211720FFF756FF00211C20FFF752FF10
:1028700000211D20FFF74EFF07B000BD00E002E081
:102880000021072001E01121172007B05DF804EBBB
:10289000FFF740BFE7E7E7E7E7000000C2C2C2C2B8
:1028A000C200000001B5FDF7D3FD64230122694693
:1028B0000248FEF760FBFDF7D3FD08BD2C000020A9
:1028C0004FEA1153A3F58063D3F11E03A8BFD3F1E0
:1028D000200C08DB4FF0004242EAC12252EA50527B
:1028E00032FA03F0704709420BD4102BC4BF00200A
:1028F000704703F5787CBCF1FF3F05D04FF0FF3007
:1029000070474FF00000704770B500F0C3F800BF8B
:102910004992248000207047F0E7B0FA80F310FA63
:1029200003F10AD0C3F11D0303F580634FEA415060
:102930004FEA035202EBD12170474FF0000070477D
:10294000DFF848C170B51CEA111E1EBF1CEA131542
:102950009EEA0C0F95EA0C0F00F06F8081EA0304E9
:1029600023EA4C134EEAD47E21EA4C1141F4801143
:1029700043F48013AE44A1FB024CA0FB0365AEF10F
:102980007F7E361955EB0C05A1FB034C4CF100037F
:10299000A0FB021C16EB0C06654153F10003094233
:1029A00018BF46F0010613F4007F0BD14FEA033144
:1029B0004FEA0530340341EA155140EA16506FF0F2
:1029C00003020AE04FEAC3214FEAC520F40241EABC
:1029D000555140EA56506FF0020202EB2E4201EBD5
:1029E000025585EACE710AD05FEA440C18BF24F084
:1029F000004450F1000041F1000120EAD47040F29F
:102A0000FE7C624500D270BDA84214BF4FF08044E6
:102A10004FF04044002E08BF0024BEF1806FA8BFD5
:102A2000A1F1C041BDE8704080F282804FF000000B
:102A300001F1C04101F0004170479EEA0C0F0CEA21
:102A4000131518BF95EA0C0F06D04FF0000081EA6D
:102A5000030E0EF0004170BD00F01CF88900013E2D
:102A600000F007B800F009B84FEA430C5FEA5C5C7D
:102A700008D081EA030100F05BB84FEA410C5FEA3D
:102A80005C5CF6D14FF00000014970470000FF0781
:102A90000000F87F0EF1020E2EF0030E5EF8046BBC
:102AA000364205D4012A43EB030515F5001F12D861
:102AB000012841EB010C1CF5001F0CD80ED14FEA88
:102AC000D17C15F5001F0CEB4C0C0CF1020C08BF6F
:102AD0004CEBD37C04E04FF0080C01E04FEAD37CD0
:102AE0000CEB4C0526FA05F606F00706B6F1040CC9
:102AF00006D20EEB860CBDE870404CF0010C60472E
:102B0000DFE80CF0090B02024FF000414FF000002B
:102B1000A1F5002170BD19461046012851EB0104B2
:102B200018BFD4F5001484BF002001F0004170BD2F
:102B30000808A0F500114FEA310170474FF04070CE
:102B4000E1EE100A704700000000000000000102E2
:102B50000304060708090000782B00080000002085
:102B60002C000000D4010008A42B00082C00002039
:102B7000B4070000F00100080000000000000000A1
:102B8000000000000000000000000000EEDDCCBBF3
:102B9000AA0000000100000010000000000000007A
:042BA0000024F40019
:040000050800019955
:00000001FF
