:020000040800F2
:10000000280700208901000807150008831100084F
:10001000051500088F0200084716000800000000C0
:100020000000000000000000000000000B150008A8
:100030004D04000800000000091500080D15000817
:10004000A3010008A3010008A3010008A301000800
:10005000A3010008A3010008A3010008A3010008F0
:10006000A3010008A3010008A3010008A3010008E0
:10007000A3010008A3010008A3010008A3010008D0
:10008000A3010008A3010008A3010008A3010008C0
:10009000A3010008A3010008A3010008A3010008B0
:1000A000A3010008A3010008A3010008A3010008A0
:1000B000A3010008A3010008A3010008A301000890
:1000C000A3010008A3010008A3010008A301000880
:1000D000A3010008A3010008A3010008A301000870
:1000E000A3010008A3010008A301000800F002F822
:1000F00000F03AF80AA090E8000C82448344AAF188
:100100000107DA4501D100F02FF8AFF2090EBAE885
:100110000F0013F0010F18BFFB1A43F0010318473B
:100120004024000060240000103A24BF78C878C141
:10013000FAD8520724BF30C830C144BF04680C60ED
:10014000704700000023002400250026103A28BF35
:1001500078C1FBD8520728BF30C148BF0B60704739
:100160001FB51FBD10B510BD00F058F81146FFF7C0
:10017000F7FF01F071FB00F076F803B4FFF7F2FF30
:1001800003BC00F07DF8000009488047094800479B
:10019000FEE7FEE7FEE7FEE7FEE7FEE7FEE7FEE737
:1001A000FEE7FEE704480549054A064B7047000094
:1001B0006F150008ED000008280100202807002026
:1001C00028030020280300204FF0000200B513464A
:1001D00094469646203922BFA0E80C50A0E80C5067
:1001E000B1F12001BFF4F7AF090728BFA0E80C5018
:1001F00048BF0CC05DF804EB890028BF40F8042B11
:1002000008BF704748BF20F8022B11F0804F18BF7D
:1002100000F8012B7047704770477047754600F033
:100220002BF8AE4605006946534620F00700854688
:1002300018B020B5FFF7B6FFBDE820404FF000062C
:100240004FF000074FF000084FF0000B21F00701BE
:10025000AC46ACE8C009ACE8C009ACE8C009ACE801
:10026000C0098D46704710B50446AFF300802046A4
:10027000BDE81040FFF781BF00487047C400002070
:1002800001491820ABBEFEE7260002007047FEE7DA
:1002900000F0E4BE70B505460C46296800204862AF
:1002A0004FF47A7603E03146284600F004F8641EE5
:1002B000A4B2F8D270BD036800225A620068426A94
:1002C0008A42FCD370474068FFF7F5BF30B401297C
:1002D000029C02D0022903D005E044F2506101E003
:1002E00042F6E0610180C3600481426030BC104688
:1002F000FFF7CEBF2DE9F0410746002500F060F87A
:1003000000240126384600F021F80028FAD02821E0
:100310003846FFF7D8FF384600F018F880B1C4F12E
:10032000070106FA01F02843C5B2384600F00EF87E
:100330000028FAD1641C082CE4DB2846BDE8F081D3
:10034000C4F1070006FA00F08543EEE70189C068B2
:1003500000F06EB92DE9F047054600F040F8284658
:10036000FFF7C8FF81462846FFF7C4FF80462846AE
:10037000FFF7C0FF07462846FFF7BCFF06462846A2
:10038000FFF7B8FF044646EA072048EA092601F0CD
:100390000BFE0A4F00223B4601F0AEFC01F07AFC56
:1003A0002861304601F000FE00223B4601F0A4FC2B
:1003B00001F070FC68612046BDE8F0870000244031
:1003C0001FB50021009101910291039101890091D3
:1003D00001210291C068694600F03AF81FBD7FB55F
:1003E000002504460095019502950395008900902B
:1003F00001200190022003902E466946E06800F03B
:1004000027F821893246E06800F017F92188204654
:10041000FFF759FF2046FFF7D3FF28212046FFF7BB
:1004200052FF2046FFF792FF40B928212046FFF7F0
:100430004AFF2046FFF78AFF00B101252046FFF75B
:1004400085FF0028FAD104B0284670BD704700002F
:100450002DE9F84FDFF8B891002409F1040A0AF1F8
:10046000040B23460F270BF1040EC9E00125A5401C
:100470002A40AA427DD1674ED1F804C0ACEB0608F1
:10048000B44532D014DCBCF1030F3AD009DCBCF126
:10049000000F2AD0BCF1010F1CD0BCF1020F31D1EA
:1004A0001DE0BCF1110F17D0BCF1120F2AD119E0D9
:1004B000B8F5881F19D006DCB8F5803F15D0B8F51F
:1004C000801F1FD111E0B8F5001F0ED0B8F5041F32
:1004D00018D10AE0CB6815E0CB681B1D12E0CB6891
:1004E00008330FE0CB680C330CE08B682BB1012B89
:1004F0004FF0080303D0456104E0042302E00561E6
:1005000000E00023FF2A01D8064601E000F10406BE
:100510004FEA840501D9A5F12005D6F8008007FA35
:1005200005FC28EA0C0803FA05F548EA0508C6F8B0
:1005300000804D68ED0062D5374DAE6946F001068A
:10054000AE61AD6924F0030605F001050095334D59
:1005500006EB050CDCF80850A607360F07FA06F87C
:1005600025EA0805DFF8B880404503D14FF00008C0
:1005700017E044E0DFF8AC80404502D14FF00108BD
:100580000FE0DFF8A480404502D14FF0020808E0F8
:10059000DFF89880404502D14FF0030801E04FF0AA
:1005A000040808FA06F848EA0508CCF808804D68FF
:1005B000D9F80060ED034D4601D5164300E096439F
:1005C0002E604D68DAF80060AD03554601D516433C
:1005D00000E096432E604D68DBF80060ED025D465A
:1005E00001D5164300E096432E604D68DEF80060AA
:1005F000AD02754601D5164300E096432E60641C9B
:100600000D682A46E5407FF431AFBDE8F88F000061
:1006100000040140000011100010024000000140E1
:1006200000080140000C014000100140001401408E
:100630008068084000D0012070470AB1016170470E
:100640000904FBE7014880687047000000000020B3
:1006500070B5040025D094F83D00002520B984F839
:100660003C50204600F04EF9242084F83D002068DC
:10067000016821F0010101602068016841F4004136
:1006800001602068016821F40041016000F088FAEF
:100690004D4A6168914201D84C4900E04C4988427A
:1006A00001D2012070BD4B492368B0FBF1F15E68B7
:1006B00026F03F060E435E606368934206D94FF40E
:1006C000967359434FF47A73B1FBF3F12368491CD5
:1006D0001E6A26F03F06314319626168914210D8C4
:1006E0004900401EB0FBF1F2521CC2F30B02042A77
:1006F00001D2042022E0B0FBF1F0401CC0F30B005B
:100700001CE0A268F2B301EBC10303EB0116431E28
:10071000B3FBF6F35B1C43F480431B0549D092B353
:1007200001EBC10202EB0111401EB0FBF1F0401CD5
:10073000C0F30B0040F4804040F400402168CA69D7
:100740004CF6FF739A431043C861D4E90710014384
:100750002068026822F0C00211430160D4E903015D
:1007600001432068826848F2FF339A431143816055
:10077000D4E9050108432168CA6822F0FF0210434A
:10078000C86001E00EE016E02068016841F0010158
:1007900001602564202084F83D00256384F83E50E4
:1007A000002070BD01EB4106431EB3FBF6F35B1C5A
:1007B000B3E70120C2E701EB4101401EB0FBF1F0BD
:1007C000401CC0F30B00B7E7A086010080841E0028
:1007D00000093D0040420F002DE9F84F1F469046AA
:1007E0008A460446DDF82890FFF72CFF054694F86A
:1007F0003D0020287FD11923012240492046009541
:1008000000F04CFD002876D194F83C00012872D00D
:10081000012084F83C0020680168C90703D1016801
:1008200041F0010101602068016821F4006101606C
:10083000212084F83D00102084F83E000026266424
:10084000C4F824806785608D20852D48E0622B46A2
:100850004A465146204600F0ADFC90B920684169F7
:100860008069009036E02A464946204600F095FD12
:1008700050B1206C042804D12068016841F4007153
:1008800001600120BDE8F88F606A21680078086186
:10089000606A401C6062618D491E6185218D491E20
:1008A00089B2218522685369DB435B070BD451B1C0
:1008B00000781061606A401C6062608D401E608537
:1008C000208D401E20852A464946204600F0C0FC67
:1008D0000028CED1208D0028C5D154F83D0B0168E9
:1008E00041F400710160202004F81E09E677667764
:1008F0000020C7E7FFE70220C4E700000200100065
:100900000000FFFF10B586B0002100910191029117
:10091000039100680F4988421AD10F4CA06940F03A
:100920000800A061A069694600F008000490C0209A
:10093000009012200190032003900848FFF788FDE3
:10094000E06940F40010E061E06900F400100490F8
:1009500006B010BD0054004000100240000C0140E1
:1009600002488168027811448160704700000020CD
:10097000074810B5016841F010010160032000F044
:1009800067F80F2000F006F800F024F8002010BDF2
:100990000020024070B50D4D04464FF47A7128785E
:1009A000B1FBF0F00A490968B1FBF0F000F0CEFAB3
:1009B00048B9102C07D200222146501E00F028F81A
:1009C00000206C6070BD012070BD000000000020A0
:1009D0000C0000200C4808B5816941F001018161DB
:1009E000816901F001010091C16941F08051C1614B
:1009F000C06900F0805000900448416821F0E06137
:100A000041F00071416008BD00100240000001404B
:100A1000F0B40E4B1B680C46C3F30223C3F1070569
:100A2000042D00D90425191D072901D2002300E057
:100A3000DB1E012606FA05F1491E214099409E4021
:100A4000761E16403143F0BC00F0FEBD0CED00E018
:100A5000064900F0070208684FF6FF03184040EA15
:100A60000220034A10430860704700000CED00E0CC
:100A70000000FA052DE9F0470F46050061D0434E0E
:100A8000306800F00700B84209D2306820F0070053
:100A900038433060306800F00700B84251D1286810
:100AA0003B4C810712D5400703D5606840F4E060F5
:100AB00060602878000703D5606840F4605060608B
:100AC0006068A96820F0F000084360602878C007DB
:100AD00028D06868012810D02168022810D0890722
:100AE00000292EDA616821F0030101436160FFF7FC
:100AF000A9FD804641F288390DE021688903EFE7BE
:100B00008901EDE7FFF79EFDA0EB0801494502D9F9
:100B10000320BDE8F0876068696800F00C00B0EB66
:100B2000810FEFD1306800F00700B8420BD9306870
:100B300020F0070038433060306800F00700B8420A
:100B400001D00120E5E72878400705D56068E9680D
:100B500020F4E060084360602878000706D56068EC
:100B6000296920F4605040EAC100606000F028F874
:100B70006168084AC1F30311515CC8400649086026
:100B800006480068FFF706FF0020C2E70020024089
:100B900000100240462500080C0000200400002040
:100BA0000448054900684968044AC1F30221515CC0
:100BB000C84070470C000020001002405625000875
:100BC00012A185B00FC98DE80F0014A0144A006867
:100BD00004905168134801F00C03042B10D0082B2B
:100BE0000ED1C1F38343C9031DF803000AD5516830
:100BF00004AAC1F34041515C0A4A5043B0FBF1F0F2
:100C000005B0704708494843FAE7000002030405AD
:100C1000060708090A0B0C0D0E0F10100102000048
:100C20000010024000127A0000093D002DE9F84F43
:100C3000040070D02078C04DC00749D06868C0F368
:100C40008100012807D06868C0F38100022809D11B
:100C50006868C00306D52868800339D56068002815
:100C6000E7D035E06068B0F5803F0BD010B1B0F54B
:100C7000A02F11D0286820F480302860286820F444
:100C8000802002E0286840F480302860606890B1DD
:100C9000FFF7D8FC06460AE0286840F48020286068
:100CA000F0E700BFFFF7CEFC801B642873D82868EC
:100CB0008003F7D50CE0FFF7C5FC064605E000BF52
:100CC000FFF7C0FC801B6428F0D828688003F7D4A5
:100CD00020789A4E80074FF001094FF0000839D56F
:100CE000686810F00C0F07D06868C0F38100022814
:100CF00009D16868C00306D42868800714D5206924
:100D0000012808D110E02069B0B1C6F80090FFF7C3
:100D100099FC074605E00AE1FFF794FCC01B022896
:100D2000C4D828688007F7D52868616920F0F800E2
:100D300040EAC10028600DE0C6F80080FFF782FCA1
:100D4000074604E0FFF77EFCC01B022823D8286872
:100D50008007F7D4207800072CD57948A169D9B14C
:100D6000C0F80090FFF76EFC074604E0FFF76AFC4E
:100D7000C01B02280FD8686A8007F7D571484FF466
:100D8000FA510068B0FBF1F0009000BF0098411EDE
:100D90000091FAD20EE080E0C0F80080FFF752FC2C
:100DA000074604E0FFF74EFCC01B022875D8686AAE
:100DB0008007F7D42078400760D5E8690027C00095
:100DC00008D4E86940F08050E861E869012700F044
:100DD000805000905C480168C90513D401688346BF
:100DE00041F480710160FFF72DFC824606E000BFF0
:100DF000FFF728FCA0EB0A0064284ED8DBF80000BF
:100E0000C005F5D5E06801280AD008B1052813D03F
:100E1000286A20F001002862286A20F0040002E01D
:100E2000286A40F001002862E06841F2883B98B1EE
:100E3000FFF708FC82460BE0286A40F004002862B5
:100E4000EEE700BFFFF7FEFBA0EB0A0159455AD8B9
:100E5000286A8007F6D50CE0FFF7F4FB824605E030
:100E6000FFF7F0FBA0EB0A0159454CD8286A800730
:100E7000F6D41FB1E86920F08050E861E06988B3DA
:100E80006968C1F38101022944D00228C6F8608054
:100E900004D0FFF7D7FB044638E034E0FFF7D2FB7D
:100EA000074604E0FFF7CEFBC01B02282BD82868BA
:100EB0008001F7D4206AB0F5803F05D16868A16849
:100EC00020F4003008436860D4E9080108436968E9
:100ED00021F4741108436860C6F86090FFF7B2FB14
:100EE000044606E025E000BFFFF7ACFB001B02282C
:100EF00009D828688001F7D51BE000BFFFF7A2FBE7
:100F0000001B022802D90320BDE8F88F2868800161
:100F1000F4D40EE00128F7D06868226A00F480312A
:100F2000914204D1616A00F47010884201D001201E
:100F3000EAE70020E8E7000000100240000042421B
:100F4000800442420C0000200070004010B5401E9A
:100F5000B0F1807F01D3012010BD4FF0E02460612B
:100F60000F21601700F070FB0020A06107202061B6
:100F7000002010BD70B590F83C20012A26D0012435
:100F800080F83C40022280F83D2003685A689D6842
:100F900022F070060A6832435A600D4B02689A428A
:100FA00008D0B2F1804F05D00A4B9A4202D00A4BCA
:100FB0009A4204D1496825F080031943916080F872
:100FC0003D40002180F83C10084670BD022070BDF5
:100FD000002C0140000400400008004010B504004F
:100FE00003D094F83D0010B107E0012010BD0020AF
:100FF00084F83C00204600F01FF8022084F83D00F1
:10100000211D206800F0B4FA012084F8460084F81D
:101010003E0084F83F0084F8400084F8410084F8E2
:10102000420084F8430084F8440084F8450084F8C2
:101030003D00002010BD000008B50068B0F1804FF1
:1010400008D10548C16941F00101C161C06900F0E2
:101050000100009008BD00000010024090F83D1013
:10106000012901D001207047022180F83D1000685D
:101070000B49884208D0B0F1804F05D00949884219
:1010800002D00949884204D1816801F0070106298C
:1010900003D0016841F001010160002070470000A9
:1010A000002C0140000400400008004070B50446D8
:1010B00090F83C00012817D0012584F83C5002200C
:1010C00084F83D002068826822F0770222F47F4293
:1010D00082600868502830D00DDC20284DD005DC17
:1010E00098B310283BD148E0022070BD302844D08E
:1010F000402834D139E0602828D0702806D0B0F5D7
:10110000805F2CD0B0F5005F29D10AE0CB68D1E92F
:101110000121206800F062FA2068816841F07701BF
:1011200009E0CB68D1E90121206800F057FA206876
:10113000816841F48041816011E0CA684968206893
:1011400000F05EFA5021206807E016E0CA6849689E
:10115000206800F066FA6021206800F049FA84F8FF
:101160003D50002084F83C0070BDCA684968206882
:1011700000F046FA40212068EFE722680146104659
:10118000EBE7FEE701684A69D24352050FD46FF4DA
:1011900080624A61002140F8301F2022427381732F
:1011A000026942F0040202610173012070470020CD
:1011B00070470000F8B50446C06A1E460D46174643
:1011C000082807D0012805D010F5803F02D0206BF9
:1011D000122804D12068016841F48071016013462F
:1011E00000224FF001112046009600F057F840B160
:1011F00020680068C00502D54FF400702064032009
:10120000F8BD2069B0F5804F0ED00620216800EAB5
:10121000D51040F0F000086133463A460B492046AD
:1012200000F070F878B902E005F0FE0000E0E8B2E6
:1012300021680861054933463A46891F204600F077
:1012400061F80028DCD00120F8BD00000800010092
:1012500070B516460D4604460DE02046FFF792FF96
:1012600008B1012070BD681C05D0FFF7EBF9801BA9
:10127000A84207D835B120684069C0434007ECD484
:10128000002070BD002044F8300F20216173A0734E
:10129000216941F0200121612073E2E72DE9F04747
:1012A0001E4690460D460446C1F30747DDF82090E0
:1012B00008E0701C06D0FFF7C5F9A0EB0900B042AA
:1012C0000FD876B12068012F18D0806925EA000078
:1012D0000004000C14D000214145EAD00020BDE8F4
:1012E000F087002044F8300F20216173A07321693A
:1012F00041F02001216120730120F0E74069E5E71A
:101300000121E9E72DE9F0479A4691460E46044649
:1013100000254FF02008C1F3074725E02068406909
:10132000C043400514D42068016841F40071016095
:1013300021686FF480604861256384F83D8084F8FB
:101340003E50206C40F00400206484F83C501FE0C4
:10135000B9F1FF3F08D0FFF775F9A0EB0A01494545
:101360000CD8B9F1000F09D02068012F13D0806983
:1013700026EA00000004000C0BD0CFE744F8305FF1
:1013800084F80D80A573206940F02000206125734A
:101390000120BDE8F0874069EAE770B516460D46C2
:1013A00004460DE02046FFF7EDFE08B1012070BDB8
:1013B000681C05D0FFF746F9801BA84207D835B155
:1013C00020684069C0430006ECD4002070BD0020B6
:1013D00044F8300F20216173A073216941F020018E
:1013E00021612073E2E700002DE9F04385B000247D
:1013F00028480094019402940394816941F02001EB
:101400008161816901F020010491816941F0040149
:101410008161816901F004010491816941F0080151
:1014200081618069DFF8708000F00800049001227B
:10143000F0214046FFF701F9DFF860900022032118
:101440004846FFF7FAF80E2001258DE8310069467D
:101450004046FEF7FDFF70200226CDE90005CDE9EC
:10146000024669464046FEF7F3FF80200327CDE998
:101470000005CDE9024769464046FEF7E9FF0097BF
:101480000396CDE9015469464846FEF7E1FF05B0F1
:10149000BDE8F0830010024000080140000C01404C
:1014A00010B586B000241648009401940294039469
:1014B00004944FF08041059401604721C0E9011474
:1014C0004FF6FE71C0E903148461FFF787FD08B190
:1014D00072B6FEE74FF48050009069460848FFF767
:1014E000E5FD08B172B6FEE7049404A9044805942A
:1014F000FFF740FD002801D072B6FEE706B010BD30
:1015000064000020FEE7FEE770477047FFF728BA47
:1015100030B58FB028216846FEF756FE14210AA880
:10152000FEF752FE01210804CDE9001000240294C8
:1015300002250491CDE907504FF4E0100990684668
:10154000FFF774FB08B172B6FEE70F20CDE90A057C
:101550004FF48060CDE90C4002210AA80E94FFF7F9
:1015600089FA002801D072B6FEE70FB030BD70478F
:10157000F0B50268164B174C174D4FF08047984254
:1015800005D0B84203D0A04201D0A84203D122F036
:1015900070064A683243984205D0B84203D0A04250
:1015A00001D0A84203D122F44074CA6822434C6996
:1015B00022F08002224302608A68C2620A68826264
:1015C000984201D10969016301214161F0BD000028
:1015D000002C0140000400400008004010B5846861
:1015E00042EA032224F47F440A432243826010BD6E
:1015F000826822F070020A4342F00701816070475E
:1016000010B5036A046A24F001040462846924F0BA
:10161000F00444EA021423F00A020A4384610262DD
:1016200010BD10B5036A23F0100303628369046AD6
:1016300023F4704343EA023224F0A00343EA011189
:101640008261016210BDFEE70907090E002804DB74
:1016500000F1E02080F80014704700F00F0000F166
:10166000E02080F8141D7047022809D2802242EA47
:101670008010C0B2102903D20844C0B200F0A2B852
:101680007047000010B532212148FEF703FE3020DC
:1016900000F098F805211E48FEF7FCFD302000F010
:1016A00091F801211A48FEF7F5FD302000F08AF884
:1016B0000A211748FEF7EEFD202000F083F80A21EA
:1016C0001348FEF7E7FD282000F07CF801211048C0
:1016D000FEF7E0FD082000F075F801210C48FEF748
:1016E000D9FD012000F06EF801210948FEF7D2FD76
:1016F00001210748FEF7CEFD062000F063F8012126
:101700000348FEF7C7FDBDE810400C2000F05AB8B2
:101710006400002070B5054600F01CFD044600F092
:1017200035FD294600F08FFE134900F08FFD00F0D3
:1017300011FD0646642094FBF0F100FB11400A25E0
:1017400090FBF5F03030C0B200F05CF894FBF5F09F
:1017500005FB10403030C0B200F054F82E2000F0ED
:1017600051F896FBF5F005FB1060BDE87040303095
:10177000C0B200F047B800000000204170B5044638
:10178000642094FBF0F100FB11400A2590FBF5F07A
:101790003030C0B200F036F894FBF5F005FB104095
:1017A000BDE870403030C0B200F02CB810B5012058
:1017B00000F008F8BDE8104014210148FEF76ABDAA
:1017C000640000201CB500F0F00141F00C028DF81F
:1017D000042041F0080100018DF8051040F00C01D3
:1017E0008DF8061040F008008DF807006420009086
:1017F000042301AA4E210248FEF7EEFF1CBD0000A3
:10180000100000201CB500F0F00141F00D028DF831
:10181000042041F0090100018DF8051040F00D0190
:101820008DF8061040F009008DF807006420009044
:10183000042301AA4E210248FEF7CEFF1CBD000082
:101840001000002010B5044602E0641CFFF7DAFF28
:1018500020780028F9D110BDFFF78AF8FFF758FE6D
:10186000FFF7C2FD0E480D494FF4804201600D495B
:10187000416000218160C0E9031241618161C16161
:101880000162FEF7E5FE08B172B6FEE7FFF708FE5B
:1018900000F052F800F008F8FCE7000000540040A7
:1018A00010000020A086010010B5FFF77FFF16A0F2
:1018B000FFF7C8FF00210120FFF7D6FE15A0FFF7B4
:1018C000C1FF00BF00F0B2F904460A211548FEF737
:1018D000E1FC0A2CF6D0012C0DD0022C0FD0FFF722
:1018E00065FF11A0FFF7AEFFBDE810404FF47A711D
:1018F0000C48FEF7CFBCBDE8104000F0C5B8BDE80D
:10190000104000F02FB800004D61696E206D656ECB
:101910007500000043686F6F7365206D6F64653AF2
:101920000000000064000020547970656420777224
:101930006F6E67210000000008B58020084A009003
:10194000064B012102F14800FEF7C0FC0448FEF7F7
:101950009FFCBDE80840FFF795BE0000000801406D
:10196000640000202DE9F0473948FEF7F3FC394FB9
:10197000374C00BFFFF71AFF37A0FFF763FF60691E
:10198000FFF7C8FE36A0FFF75DFF01210846FFF70D
:101990006BFE34A0FFF756FF02260025DFF8D0804B
:1019A00000F044F90A2815D200F008FC81464146AF
:1019B000284600F04BFC494600F05EFB054600F06F
:1019C000C9FBFFF7DBFE22480A214838FEF762FC1C
:1019D000761EF6B2BD420BDDFFF7E8FE25A0FFF74D
:1019E00031FF1B484FF47A714838FEF753FCC1E7CA
:1019F000002ED5D1234E012202213046FEF71DFED6
:101A000040F2DC571EE01248FEF7A4FCFFF7CEFEC2
:101A100011A0FFF717FF6069FFF77CFE10A0FFF72A
:101A200011FF0B4839464838FEF734FC29466069F7
:101A300000F0D8FC01D2002200E001220221304651
:101A4000FEF7FBFD00F0F2F80128DCD1BDE8F087DD
:101A5000AC0000200000B44248756D69643A000093
:101A600020250000205365742068756D69643A0074
:101A7000000020414572723A206E6F742076616CCE
:101A800069642100000C01402DE9F0474348FEF74E
:101A900061FC434F414C00BFFFF788FE41A0FFF7B8
:101AA000D1FE2069FFF736FE40A0FFF7CBFE0121F3
:101AB0000846FFF7D9FD3EA0FFF7C4FE0226002529
:101AC000DFF8F88000F0B2F80A2815D200F076FBB3
:101AD00081464146284600F0B9FB494600F0CCFA61
:101AE000054600F037FBFFF749FE2C480A2148382D
:101AF000FEF7D0FB761EF6B2BD420BDDFFF756FEB9
:101B00002FA0FFF79FFE25484FF47A714838FEF763
:101B1000C1FBC1E7002ED5D12D4E01221146304622
:101B2000FEF78BFD40F2DC5716E01C48FEF712FC76
:101B3000FFF73CFE1BA0FFF785FE2069FFF7EAFDDB
:101B40001AA0FFF77FFE154839464838FEF7A2FB7A
:101B500000F06CF8012804D12946206900F042FB0E
:101B6000E3D3002201213046FEF767FDFFF71EFE9A
:101B700018A0FFF767FE00210120FFF775FD19A0EF
:101B8000FFF760FE054814214838FEF783FB00F09C
:101B90004DF80128EAD1BDE8F0870000AC00002034
:101BA0000000484254656D703A000000206F430009
:101BB000205365742074656D703A00000000204168
:101BC0004572723A206E6F742076616C69642100F0
:101BD000000C01405075736820627574746F6E203C
:101BE00031000000746F20627265616B00000000BC
:101BF0000D4A13681B0704D4017010680007FCD558
:101C0000704713685B0705D4491C017010684007D2
:101C1000FCD5704713689B07FBD4891C01701068C2
:101C20008007FCD5704700000808014038B50A203D
:101C3000174C8DF80000002240212046FEF7FDFCE5
:101C400001216846FFF7D4FF012240212046FEF71C
:101C5000F4FC002220212046FEF7EFFC0421684618
:101C6000FFF7C6FF012220212046FEF7E6FC0022F6
:101C700010212046FEF7E1FC07216846FFF7B8FF78
:101C8000012210212046FEF7D8FC9DF8000038BD47
:101C90000008014021F00042A2F16052B2F5801F1D
:101CA00001F0004328BFD2F17F6C0BD95FEA001C22
:101CB00043EAC20242EB507018BF704728BF20F0C1
:101CC00001007047B2F5801FBCBF184670474FEA4D
:101CD000410C1CF5001F02D2084600F07EBB70B517
:101CE00000F075F900000089FFF7F6BF4FF00040E3
:101CF000A0F58000704700002DE9C04130B4DFF846
:101D0000A0C23CEA111418BF3CEA131400F0EC80A6
:101D100081EA03051CEA111444EAD57418BF1CEAD1
:101D2000131500F0C780A4EB05044FF0004545EA09
:101D3000C12145EAC32341EA505143EA525304F119
:101D40007F74994204F500344FEAC0204FEAC22262
:101D500008BF904200F09C804FEA13650FF24016D6
:101D6000765D4FEA134506FB05F7C7F1807706FB62
:101D700007F74FEAD737A7FB03687642C8F58038E4
:101D8000A7FB06CE38BFA8F1010807FB08E64FF015
:101D9000000EA6FB028CE6FB03CEDCF1000CCEF1BC
:101DA000004E38BFAEF1010EA6FB0C584FF00007F5
:101DB0004FF00005E6FB0E87A1FB08C6A0FB07CE8F
:101DC00016EB0E0645F10005E1FB076515F1E04E47
:101DD0007EBFA4F580345FEA46066D4116F18007A8
:101DE00045F100054FEA17274FEA066647EA0567FF
:101DF000A6F1DE46B6F1805F4FEA15251FD93846B9
:101E000024F0010C05EBC471BCF1FE6F01EB0C1169
:101E100002D8F0BCBDE8008124425CBF01F5801E01
:101E20009EEAC47F02D4F0BCBDE80081244238D4CD
:101E3000F0BCA1F1C041BDE8004100F016B94FEA85
:101E4000D22242EA43524FEAD323A7FB02864FEA4B
:101E5000D02040EA415007FB03661EEA0E0F4FEA0E
:101E6000D12105FB026658BFA6EB0056B6EB005623
:101E70004FEA520E4EEAC37E18EB0E0E56EB530E8F
:101E8000BDD518EB02085E417F1C55F10005B6E791
:101E90004FF480154FF000074FF000064FF0000898
:101EA000ADE7F0BC4FF0000001F1C04101F000418E
:101EB000BDE8008111EA0C1F0CEA131500D00CE0FC
:101EC00013EA0C1F00F025804FF00000F0BC81EAFF
:101ED000030101F00041BDE80081F0BCBDE8004114
:101EE00081EA030100F0C1B8F0BCBDE8004170B563
:101EF00000F06DF8097EFC3E00F007B881EA0301AE
:101F00004FF0000001F00041704781EA030100F04A
:101F1000ACB8F0BCBDE800414FF00000214970476B
:101F2000FFFDFBF9F7F5F4F2F0EEEDEBE9E8E6E49E
:101F3000E3E1E0DEDDDBDAD8D7D5D4D3D1D0CFCD25
:101F4000CCCBCAC8C7C6C5C4C2C1C0BFBEBDBCBB5E
:101F5000BAB9B8B7B6B5B4B3B2B1B0AFAEADACAB59
:101F6000AAA9A8A8A7A6A5A4A3A3A2A1A09F9F9E33
:101F70009D9C9C9B9A9999989797969595949393E5
:101F8000929191908F8F8E8E8D8C8C8B8B8A89897C
:101F900088888787868585848483838282818180FF
:101FA0000000FF070000F87FB0FA80F310FA03F199
:101FB0000AD0C3F11D0303F580634FEA41504FEA95
:101FC000035202EBD12170474FF0000070470EF131
:101FD000020E2EF0030E5EF8046B364205D4012A81
:101FE00043EB030515F5001F12D8012841EB010C46
:101FF0001CF5001F0CD80ED14FEAD17C15F5001F3F
:102000000CEB4C0C0CF1020C08BF4CEBD37C04E045
:102010004FF0080C01E04FEAD37C0CEB4C0526FA9C
:1020200005F606F00706B6F1040C06D20EEB860C98
:10203000BDE870404CF0010C6047DFE80CF0090B84
:1020400002024FF000414FF00000A1F5002170BDE9
:1020500019461046012851EB010418BFD4F50014AD
:1020600084BF002001F0004170BD0808A0F50011F8
:102070004FEA31017047000090EA010F48BF81F03C
:10208000004100F1F281421A3CBF801A89184FEAE0
:10209000D0524FF07F4C1CEA410FA2EBD15318BF36
:1020A0009CEA026F00F03B804FF0004C4CEA0020AD
:1020B0004CEA012121FA03FC10EB0C0C1ED202F1B8
:1020C000FF325FEA1C2040EBC25038BF70471CF063
:1020D0007F0F4FEA400C18BFBCF17F4F38BF7047ED
:1020E000C3F12003994008BF20F00100BCF17F4FED
:1020F00038BF7047A0F1C04000F06FB94FEA3C0014
:10210000000A40EBC25028BF1CF0FF0F4FEA400C02
:10211000E6D018BFBCF17F4F38BF7047EAE79CEAB2
:10212000026F05D010EA5C0F08BF00F00040704756
:1021300010B500F00CF900BF64FBBE3E401058BF64
:10214000C0F14040491058BFC1F140418142EFF316
:102150000080704741000B0ED3F19E0208D950F465
:1021600000034FEA032323FA02F048BF40427047BE
:1021700010B500F0ECF800BF4992248000207047B1
:102180006FF0004282EA20007047000010F000412A
:1021900048BF4042B0FA80F310FA03F2C3F19D0346
:1021A0000BD051EAC35101EB1220530638BF7047E0
:1021B00000F1010008BF20F001007047B0FA80F381
:1021C00010FA03F2C3F19D030AD0D90501EB1220E6
:1021D000530638BF704700F1010008BF20F001002E
:1021E0007047000050EA010C00F113801CF5000F4D
:1021F00058BFBCF5000F01D48842704707D710F5CF
:10220000000F58BF11F5000F15D48842704789425E
:1022100070471CF5000F04D5BCF5000FF7D58142BF
:1022200070474FF0807C1CEB400F38BF1CEB410F18
:1022300001D28142704710B500F089F8922449001C
:102240004FF000504FF08051FFF778BF4FF47F0CF4
:102250001CEAD0121EBF1CEAD11392EA0C0F93EABB
:102260000C0F00F0478090EA010F48BF42F48072E3
:102270004FF0004C4CEA00204CEA012102EB030233
:10228000A0FB0113A2F50002002918BF43F00103CF
:102290005B0028BF4FEA330342EB22425FEA132C74
:1022A0004CEBC2502EBFBCEB436FB2F57C0F7047B6
:1022B0004FEA036CBCF1004F08BF20F00100B2F5FB
:1022C0007C0F38BF70470BD582F0FF0212F5803FBC
:1022D000C8BF704700F1C040D8BF00F00040704751
:1022E00000F5000C5FEA4C0C48BF7047B0F1C040ED
:1022F00000F073B890EA010F0CEAD11348BF42F422
:102300008072624538BF634504D280EA010000F064
:102310000040704710B500F01AF800BF8900013E78
:1023200000F007B800F009B85FEA410C5FEA1C6CE6
:1023300008D080EA010000F050B85FEA400C5FEA84
:102340001C6CF6D14FF00040A0F5800070470EF1F4
:10235000020E2EF0030E5EF8044B244204D44FEA22
:102360004102B2F17F4F11D84FEA4003B3F17F4FE2
:102370000CD80ED14FEAD07CB2F17F4F0CEB4C0C55
:102380000CF1020C08BF4CEBD17C04E04FF0080CC0
:1023900001E04FEAD17C0CEB4C0324FA03F404F087
:1023A0000704B4F1040C06D20EEB840CBDE8104017
:1023B0004CF0010C6047DFE80CF0070802024FF018
:1023C0000040A0F5800010BD0846420018BFD2F1C1
:1023D000807288BF00F0004010BDFF2141EAD0505C
:1023E000C005704751EA000C00F113801CF5000F86
:1023F00058BFBCF5000F01D48142704707D711F5D3
:10240000000F58BF10F5000F15D481427047894264
:1024100070471CF5000F04D5BCF5000FF7D58842B6
:1024200070474FF0807C1CEB410F38BF1CEB400F16
:1024300001D28842704780EA010081EA000180EA07
:102440000100FFF7F8BE80F0004090EA010F7FF531
:102450001AAE81F0004100F008B8000090EA010FC8
:1024600048BF81F000413FF50EAE421A04D882F019
:102470000042A0EB020011444FEAD0524FF07F4CD3
:102480001CEA410FA2EBD15318BF9CEA026F4AD05D
:102490004FF0004C4CEA00204CEA012121FA03FCE9
:1024A000B0EB0C0C0FD412F0FE0F36D05FEA4C00EC
:1024B0001DD5001240EBC25038BF70471CF03F0FD3
:1024C00018BF70470BE0A2F101025FEA1C2040EB4D
:1024D000C25038BF70471CF07F0F18BF7047C3F160
:1024E0002003994014BF401E20F00100704780086F
:1024F0004FEA122308BF7047B0FA80FCA2EB0C022F
:10250000CCF1280C60FA0CF093EA122F04BF00EB18
:10251000C25070474FEAC3707047130A5FEADC107D
:1025200008BF7047F6E79CEA026F04D010EA5C0F20
:1025300008BF0020704710B5FFF709FF40DFF63EE7
:1025400081F0004070470000000000000000010220
:10255000030406070809000000000102030400004C
:10256000802500080000002010000000280100085D
:102570009025000810000020180700004401000802
:102580000100000010000000000000000024F40022
:04000005080000ED02
:00000001FF
